{"src/contracts/Supra.sol":{"Supra":{"abi":[{"inputs":[{"internalType":"address","name":"oracle_","type":"address"}],"stateMutability":"nonpayable","type":"constructor"},{"anonymous":false,"inputs":[{"indexed":false,"internalType":"uint256","name":"pairId","type":"uint256"},{"indexed":false,"internalType":"uint256","name":"price","type":"uint256"}],"name":"PriceThresholdMet","type":"event"},{"inputs":[{"internalType":"bytes","name":"_bytesProof","type":"bytes"}],"name":"deliverPriceData","outputs":[],"stateMutability":"nonpayable","type":"function"},{"inputs":[{"internalType":"uint256","name":"pairId","type":"uint256"}],"name":"getLatestPrice","outputs":[{"internalType":"uint256","name":"price","type":"uint256"},{"internalType":"uint256","name":"decimals","type":"uint256"}],"stateMutability":"view","type":"function"},{"inputs":[{"internalType":"uint256","name":"","type":"uint256"}],"name":"latestDecimals","outputs":[{"internalType":"uint256","name":"","type":"uint256"}],"stateMutability":"view","type":"function"},{"inputs":[{"internalType":"uint256","name":"","type":"uint256"}],"name":"latestPrices","outputs":[{"internalType":"uint256","name":"","type":"uint256"}],"stateMutability":"view","type":"function"},{"inputs":[{"internalType":"address","name":"oracle_","type":"address"}],"name":"updatePullAddress","outputs":[],"stateMutability":"nonpayable","type":"function"}],"devdoc":{"kind":"dev","methods":{},"version":1},"evm":{"bytecode":{"linkReferences":{},"object":"60803461007457601f6104f938819003918201601f19168301916001600160401b038311848410176100795780849260209460405283398101031261007457516001600160a01b0381169081900361007457600080546001600160a01b03191691909117905560405161046990816100908239f35b600080fd5b634e487b7160e01b600052604160045260246000fdfe6080604081815260048036101561001557600080fd5b600092833560e01c9081632d4aa76f1461011c57508063a73a99ac146100f5578063b94fe917146100c0578063c9f8d053146100845763dd1fd8561461005a57600080fd5b346100805760203660031901126100805760209282913581526002845220549051908152f35b8280fd5b8382346100bc5760203660031901126100bc57356001600160a01b038116908190036100bc5781546001600160a01b03191617815580f35b5080fd5b508290346100bc5760203660031901126100bc5735815260016020528180822054916002602052205482519182526020820152f35b50346100805760203660031901126100805760209282913581526001845220549051908152f35b91849150346100bc576020806003193601126100805781359467ffffffffffffffff808711610361573660238801121561036157868401358181116103535760249736898383010111610339578588886044828683978f83988d60018060a01b0388541699632ce81dbd60e21b8752860152828286015201848401378181018301849052601f01601f191681010301925af195861561035757859661029c575b5050835b8551805182101561029857816101d591610409565b516101e38285890151610409565b51906101f283858a0151610409565b51818852600186528285892055600286528085892055604d811161028657600a0a6103e89080820291820403610286579084918311610252575b5050506000198114610240576001016101c0565b634e487b7160e01b8552601184528685fd5b7f52f568891f17318209fd465531500190924890a6a3e48086bd653020498d6b2392825191825286820152a187828161022c565b634e487b7160e01b8852601187528988fd5b8580f35b909195503d8086833e6102af8183610365565b810190838183031261035357805190838211610339570191606083830312610353578651926060840184811083821117610341578852805182811161033d57836102fa91830161039d565b84528481015182811161033d578361031391830161039d565b85850152878101519182116103395761032d92910161039d565b858201529386806101bc565b8680fd5b8780fd5b634e487b7160e01b8852604187528988fd5b8580fd5b82513d87823e3d90fd5b8480fd5b90601f8019910116810190811067ffffffffffffffff82111761038757604052565b634e487b7160e01b600052604160045260246000fd5b9080601f830112156104045781519067ffffffffffffffff8211610387578160051b604051936020936103d285840187610365565b85528380860192820101928311610404578301905b8282106103f5575050505090565b815181529083019083016103e7565b600080fd5b805182101561041d5760209160051b010190565b634e487b7160e01b600052603260045260246000fdfea2646970667358221220c3e9cea53515a072214490aa011e4d00dda04c3f536fd62905c268416aa69eee64736f6c63430008130033","opcodes":"PUSH1 0x80 CALLVALUE PUSH2 0x74 JUMPI PUSH1 0x1F PUSH2 0x4F9 CODESIZE DUP2 SWAP1 SUB SWAP2 DUP3 ADD PUSH1 0x1F NOT AND DUP4 ADD SWAP2 PUSH1 0x1 PUSH1 0x1 PUSH1 0x40 SHL SUB DUP4 GT DUP5 DUP5 LT OR PUSH2 0x79 JUMPI DUP1 DUP5 SWAP3 PUSH1 0x20 SWAP5 PUSH1 0x40 MSTORE DUP4 CODECOPY DUP2 ADD SUB SLT PUSH2 0x74 JUMPI MLOAD PUSH1 0x1 PUSH1 0x1 PUSH1 0xA0 SHL SUB DUP2 AND SWAP1 DUP2 SWAP1 SUB PUSH2 0x74 JUMPI PUSH1 0x0 DUP1 SLOAD PUSH1 0x1 PUSH1 0x1 PUSH1 0xA0 SHL SUB NOT AND SWAP2 SWAP1 SWAP2 OR SWAP1 SSTORE PUSH1 0x40 MLOAD PUSH2 0x469 SWAP1 DUP2 PUSH2 0x90 DUP3 CODECOPY RETURN JUMPDEST PUSH1 0x0 DUP1 REVERT JUMPDEST PUSH4 0x4E487B71 PUSH1 0xE0 SHL PUSH1 0x0 MSTORE PUSH1 0x41 PUSH1 0x4 MSTORE PUSH1 0x24 PUSH1 0x0 REVERT INVALID PUSH1 0x80 PUSH1 0x40 DUP2 DUP2 MSTORE PUSH1 0x4 DUP1 CALLDATASIZE LT ISZERO PUSH2 0x15 JUMPI PUSH1 0x0 DUP1 REVERT JUMPDEST PUSH1 0x0 SWAP3 DUP4 CALLDATALOAD PUSH1 0xE0 SHR SWAP1 DUP2 PUSH4 0x2D4AA76F EQ PUSH2 0x11C JUMPI POP DUP1 PUSH4 0xA73A99AC EQ PUSH2 0xF5 JUMPI DUP1 PUSH4 0xB94FE917 EQ PUSH2 0xC0 JUMPI DUP1 PUSH4 0xC9F8D053 EQ PUSH2 0x84 JUMPI PUSH4 0xDD1FD856 EQ PUSH2 0x5A JUMPI PUSH1 0x0 DUP1 REVERT JUMPDEST CALLVALUE PUSH2 0x80 JUMPI PUSH1 0x20 CALLDATASIZE PUSH1 0x3 NOT ADD SLT PUSH2 0x80 JUMPI PUSH1 0x20 SWAP3 DUP3 SWAP2 CALLDATALOAD DUP2 MSTORE PUSH1 0x2 DUP5 MSTORE KECCAK256 SLOAD SWAP1 MLOAD SWAP1 DUP2 MSTORE RETURN JUMPDEST DUP3 DUP1 REVERT JUMPDEST DUP4 DUP3 CALLVALUE PUSH2 0xBC JUMPI PUSH1 0x20 CALLDATASIZE PUSH1 0x3 NOT ADD SLT PUSH2 0xBC JUMPI CALLDATALOAD PUSH1 0x1 PUSH1 0x1 PUSH1 0xA0 SHL SUB DUP2 AND SWAP1 DUP2 SWAP1 SUB PUSH2 0xBC JUMPI DUP2 SLOAD PUSH1 0x1 PUSH1 0x1 PUSH1 0xA0 SHL SUB NOT AND OR DUP2 SSTORE DUP1 RETURN JUMPDEST POP DUP1 REVERT JUMPDEST POP DUP3 SWAP1 CALLVALUE PUSH2 0xBC JUMPI PUSH1 0x20 CALLDATASIZE PUSH1 0x3 NOT ADD SLT PUSH2 0xBC JUMPI CALLDATALOAD DUP2 MSTORE PUSH1 0x1 PUSH1 0x20 MSTORE DUP2 DUP1 DUP3 KECCAK256 SLOAD SWAP2 PUSH1 0x2 PUSH1 0x20 MSTORE KECCAK256 SLOAD DUP3 MLOAD SWAP2 DUP3 MSTORE PUSH1 0x20 DUP3 ADD MSTORE RETURN JUMPDEST POP CALLVALUE PUSH2 0x80 JUMPI PUSH1 0x20 CALLDATASIZE PUSH1 0x3 NOT ADD SLT PUSH2 0x80 JUMPI PUSH1 0x20 SWAP3 DUP3 SWAP2 CALLDATALOAD DUP2 MSTORE PUSH1 0x1 DUP5 MSTORE KECCAK256 SLOAD SWAP1 MLOAD SWAP1 DUP2 MSTORE RETURN JUMPDEST SWAP2 DUP5 SWAP2 POP CALLVALUE PUSH2 0xBC JUMPI PUSH1 0x20 DUP1 PUSH1 0x3 NOT CALLDATASIZE ADD SLT PUSH2 0x80 JUMPI DUP2 CALLDATALOAD SWAP5 PUSH8 0xFFFFFFFFFFFFFFFF DUP1 DUP8 GT PUSH2 0x361 JUMPI CALLDATASIZE PUSH1 0x23 DUP9 ADD SLT ISZERO PUSH2 0x361 JUMPI DUP7 DUP5 ADD CALLDATALOAD DUP2 DUP2 GT PUSH2 0x353 JUMPI PUSH1 0x24 SWAP8 CALLDATASIZE DUP10 DUP4 DUP4 ADD ADD GT PUSH2 0x339 JUMPI DUP6 DUP9 DUP9 PUSH1 0x44 DUP3 DUP7 DUP4 SWAP8 DUP16 DUP4 SWAP9 DUP14 PUSH1 0x1 DUP1 PUSH1 0xA0 SHL SUB DUP9 SLOAD AND SWAP10 PUSH4 0x2CE81DBD PUSH1 0xE2 SHL DUP8 MSTORE DUP7 ADD MSTORE DUP3 DUP3 DUP7 ADD MSTORE ADD DUP5 DUP5 ADD CALLDATACOPY DUP2 DUP2 ADD DUP4 ADD DUP5 SWAP1 MSTORE PUSH1 0x1F ADD PUSH1 0x1F NOT AND DUP2 ADD SUB ADD SWAP3 GAS CALL SWAP6 DUP7 ISZERO PUSH2 0x357 JUMPI DUP6 SWAP7 PUSH2 0x29C JUMPI JUMPDEST POP POP DUP4 JUMPDEST DUP6 MLOAD DUP1 MLOAD DUP3 LT ISZERO PUSH2 0x298 JUMPI DUP2 PUSH2 0x1D5 SWAP2 PUSH2 0x409 JUMP JUMPDEST MLOAD PUSH2 0x1E3 DUP3 DUP6 DUP10 ADD MLOAD PUSH2 0x409 JUMP JUMPDEST MLOAD SWAP1 PUSH2 0x1F2 DUP4 DUP6 DUP11 ADD MLOAD PUSH2 0x409 JUMP JUMPDEST MLOAD DUP2 DUP9 MSTORE PUSH1 0x1 DUP7 MSTORE DUP3 DUP6 DUP10 KECCAK256 SSTORE PUSH1 0x2 DUP7 MSTORE DUP1 DUP6 DUP10 KECCAK256 SSTORE PUSH1 0x4D DUP2 GT PUSH2 0x286 JUMPI PUSH1 0xA EXP PUSH2 0x3E8 SWAP1 DUP1 DUP3 MUL SWAP2 DUP3 DIV SUB PUSH2 0x286 JUMPI SWAP1 DUP5 SWAP2 DUP4 GT PUSH2 0x252 JUMPI JUMPDEST POP POP POP PUSH1 0x0 NOT DUP2 EQ PUSH2 0x240 JUMPI PUSH1 0x1 ADD PUSH2 0x1C0 JUMP JUMPDEST PUSH4 0x4E487B71 PUSH1 0xE0 SHL DUP6 MSTORE PUSH1 0x11 DUP5 MSTORE DUP7 DUP6 REVERT JUMPDEST PUSH32 0x52F568891F17318209FD465531500190924890A6A3E48086BD653020498D6B23 SWAP3 DUP3 MLOAD SWAP2 DUP3 MSTORE DUP7 DUP3 ADD MSTORE LOG1 DUP8 DUP3 DUP2 PUSH2 0x22C JUMP JUMPDEST PUSH4 0x4E487B71 PUSH1 0xE0 SHL DUP9 MSTORE PUSH1 0x11 DUP8 MSTORE DUP10 DUP9 REVERT JUMPDEST DUP6 DUP1 RETURN JUMPDEST SWAP1 SWAP2 SWAP6 POP RETURNDATASIZE DUP1 DUP7 DUP4 RETURNDATACOPY PUSH2 0x2AF DUP2 DUP4 PUSH2 0x365 JUMP JUMPDEST DUP2 ADD SWAP1 DUP4 DUP2 DUP4 SUB SLT PUSH2 0x353 JUMPI DUP1 MLOAD SWAP1 DUP4 DUP3 GT PUSH2 0x339 JUMPI ADD SWAP2 PUSH1 0x60 DUP4 DUP4 SUB SLT PUSH2 0x353 JUMPI DUP7 MLOAD SWAP3 PUSH1 0x60 DUP5 ADD DUP5 DUP2 LT DUP4 DUP3 GT OR PUSH2 0x341 JUMPI DUP9 MSTORE DUP1 MLOAD DUP3 DUP2 GT PUSH2 0x33D JUMPI DUP4 PUSH2 0x2FA SWAP2 DUP4 ADD PUSH2 0x39D JUMP JUMPDEST DUP5 MSTORE DUP5 DUP2 ADD MLOAD DUP3 DUP2 GT PUSH2 0x33D JUMPI DUP4 PUSH2 0x313 SWAP2 DUP4 ADD PUSH2 0x39D JUMP JUMPDEST DUP6 DUP6 ADD MSTORE DUP8 DUP2 ADD MLOAD SWAP2 DUP3 GT PUSH2 0x339 JUMPI PUSH2 0x32D SWAP3 SWAP2 ADD PUSH2 0x39D JUMP JUMPDEST DUP6 DUP3 ADD MSTORE SWAP4 DUP7 DUP1 PUSH2 0x1BC JUMP JUMPDEST DUP7 DUP1 REVERT JUMPDEST DUP8 DUP1 REVERT JUMPDEST PUSH4 0x4E487B71 PUSH1 0xE0 SHL DUP9 MSTORE PUSH1 0x41 DUP8 MSTORE DUP10 DUP9 REVERT JUMPDEST DUP6 DUP1 REVERT JUMPDEST DUP3 MLOAD RETURNDATASIZE DUP8 DUP3 RETURNDATACOPY RETURNDATASIZE SWAP1 REVERT JUMPDEST DUP5 DUP1 REVERT JUMPDEST SWAP1 PUSH1 0x1F DUP1 NOT SWAP2 ADD AND DUP2 ADD SWAP1 DUP2 LT PUSH8 0xFFFFFFFFFFFFFFFF DUP3 GT OR PUSH2 0x387 JUMPI PUSH1 0x40 MSTORE JUMP JUMPDEST PUSH4 0x4E487B71 PUSH1 0xE0 SHL PUSH1 0x0 MSTORE PUSH1 0x41 PUSH1 0x4 MSTORE PUSH1 0x24 PUSH1 0x0 REVERT JUMPDEST SWAP1 DUP1 PUSH1 0x1F DUP4 ADD SLT ISZERO PUSH2 0x404 JUMPI DUP2 MLOAD SWAP1 PUSH8 0xFFFFFFFFFFFFFFFF DUP3 GT PUSH2 0x387 JUMPI DUP2 PUSH1 0x5 SHL PUSH1 0x40 MLOAD SWAP4 PUSH1 0x20 SWAP4 PUSH2 0x3D2 DUP6 DUP5 ADD DUP8 PUSH2 0x365 JUMP JUMPDEST DUP6 MSTORE DUP4 DUP1 DUP7 ADD SWAP3 DUP3 ADD ADD SWAP3 DUP4 GT PUSH2 0x404 JUMPI DUP4 ADD SWAP1 JUMPDEST DUP3 DUP3 LT PUSH2 0x3F5 JUMPI POP POP POP POP SWAP1 JUMP JUMPDEST DUP2 MLOAD DUP2 MSTORE SWAP1 DUP4 ADD SWAP1 DUP4 ADD PUSH2 0x3E7 JUMP JUMPDEST PUSH1 0x0 DUP1 REVERT JUMPDEST DUP1 MLOAD DUP3 LT ISZERO PUSH2 0x41D JUMPI PUSH1 0x20 SWAP2 PUSH1 0x5 SHL ADD ADD SWAP1 JUMP JUMPDEST PUSH4 0x4E487B71 PUSH1 0xE0 SHL PUSH1 0x0 MSTORE PUSH1 0x32 PUSH1 0x4 MSTORE PUSH1 0x24 PUSH1 0x0 REVERT INVALID LOG2 PUSH5 0x6970667358 0x22 SLT KECCAK256 0xC3 0xE9 0xCE 0xA5 CALLDATALOAD ISZERO LOG0 PUSH19 0x214490AA011E4D00DDA04C3F536FD62905C268 COINBASE PUSH11 0xA69EEE64736F6C63430008 SGT STOP CALLER "},"gasEstimates":{"creation":{"codeDepositCost":"225800","executionCost":"infinite","totalCost":"infinite"},"external":{"deliverPriceData(bytes)":"infinite","getLatestPrice(uint256)":"4554","latestDecimals(uint256)":"2421","latestPrices(uint256)":"2360","updatePullAddress(address)":"24497"}},"methodIdentifiers":{"deliverPriceData(bytes)":"2d4aa76f","getLatestPrice(uint256)":"b94fe917","latestDecimals(uint256)":"dd1fd856","latestPrices(uint256)":"a73a99ac","updatePullAddress(address)":"c9f8d053"}},"storageLayout":{"storage":[{"astId":23,"contract":"src/contracts/Supra.sol:Supra","label":"oracle","offset":0,"slot":"0","type":"t_contract(ISupraOraclePull)20"},{"astId":27,"contract":"src/contracts/Supra.sol:Supra","label":"latestPrices","offset":0,"slot":"1","type":"t_mapping(t_uint256,t_uint256)"},{"astId":31,"contract":"src/contracts/Supra.sol:Supra","label":"latestDecimals","offset":0,"slot":"2","type":"t_mapping(t_uint256,t_uint256)"}],"types":{"t_contract(ISupraOraclePull)20":{"encoding":"inplace","label":"contract ISupraOraclePull","numberOfBytes":"20"},"t_mapping(t_uint256,t_uint256)":{"encoding":"mapping","key":"t_uint256","label":"mapping(uint256 => uint256)","numberOfBytes":"32","value":"t_uint256"},"t_uint256":{"encoding":"inplace","label":"uint256","numberOfBytes":"32"}}},"userdoc":{"kind":"user","methods":{},"version":1}}}}