{"src/contracts/BridgeContract.sol":{"BridgeContract":{"abi":[{"inputs":[{"internalType":"address","name":"_lzEndpoint","type":"address"},{"internalType":"address","name":"_priceConsumer","type":"address"}],"stateMutability":"nonpayable","type":"constructor"},{"anonymous":false,"inputs":[{"indexed":true,"internalType":"address","name":"previousOwner","type":"address"},{"indexed":true,"internalType":"address","name":"newOwner","type":"address"}],"name":"OwnershipTransferred","type":"event"},{"anonymous":false,"inputs":[{"indexed":true,"internalType":"address","name":"to","type":"address"},{"indexed":true,"internalType":"uint16","name":"srcChainId","type":"uint16"},{"indexed":false,"internalType":"uint256","name":"amount","type":"uint256"},{"indexed":false,"internalType":"uint256","name":"price","type":"uint256"}],"name":"TokensReceived","type":"event"},{"anonymous":false,"inputs":[{"indexed":true,"internalType":"address","name":"from","type":"address"},{"indexed":true,"internalType":"uint16","name":"dstChainId","type":"uint16"},{"indexed":false,"internalType":"bytes","name":"toAddress","type":"bytes"},{"indexed":false,"internalType":"uint256","name":"amount","type":"uint256"},{"indexed":false,"internalType":"uint256","name":"price","type":"uint256"}],"name":"TokensSent","type":"event"},{"inputs":[{"internalType":"uint16","name":"_dstChainId","type":"uint16"},{"internalType":"bytes","name":"_toAddress","type":"bytes"},{"internalType":"uint256","name":"_amount","type":"uint256"},{"internalType":"bytes","name":"_adapterParams","type":"bytes"}],"name":"estimateFees","outputs":[{"internalType":"uint256","name":"nativeFee","type":"uint256"},{"internalType":"uint256","name":"zroFee","type":"uint256"}],"stateMutability":"view","type":"function"},{"inputs":[],"name":"lzEndpoint","outputs":[{"internalType":"contract ILayerZeroEndpoint","name":"","type":"address"}],"stateMutability":"view","type":"function"},{"inputs":[{"internalType":"uint16","name":"","type":"uint16"}],"name":"minDstGasLookup","outputs":[{"internalType":"uint256","name":"","type":"uint256"}],"stateMutability":"view","type":"function"},{"inputs":[],"name":"owner","outputs":[{"internalType":"address","name":"","type":"address"}],"stateMutability":"view","type":"function"},{"inputs":[],"name":"priceConsumer","outputs":[{"internalType":"contract PriceConsumer","name":"","type":"address"}],"stateMutability":"view","type":"function"},{"inputs":[],"name":"renounceOwnership","outputs":[],"stateMutability":"nonpayable","type":"function"},{"inputs":[{"internalType":"address","name":"_token","type":"address"},{"internalType":"address","name":"_to","type":"address"},{"internalType":"uint256","name":"_amount","type":"uint256"}],"name":"rescueTokens","outputs":[],"stateMutability":"nonpayable","type":"function"},{"inputs":[{"components":[{"internalType":"uint16","name":"dstChainId","type":"uint16"},{"internalType":"bytes","name":"toAddress","type":"bytes"},{"internalType":"uint256","name":"amount","type":"uint256"},{"internalType":"address payable","name":"refundAddress","type":"address"},{"internalType":"address","name":"zroPaymentAddress","type":"address"},{"internalType":"bytes","name":"adapterParams","type":"bytes"},{"internalType":"bytes","name":"priceProof","type":"bytes"}],"internalType":"struct BridgeContract.BridgeParams","name":"params","type":"tuple"}],"name":"sendTokens","outputs":[],"stateMutability":"payable","type":"function"},{"inputs":[{"internalType":"uint16","name":"_dstChainId","type":"uint16"},{"internalType":"uint256","name":"_minGas","type":"uint256"}],"name":"setMinDstGas","outputs":[],"stateMutability":"nonpayable","type":"function"},{"inputs":[{"internalType":"uint16","name":"_remoteChainId","type":"uint16"},{"internalType":"bytes","name":"_path","type":"bytes"}],"name":"setTrustedRemote","outputs":[],"stateMutability":"nonpayable","type":"function"},{"inputs":[{"internalType":"address","name":"newOwner","type":"address"}],"name":"transferOwnership","outputs":[],"stateMutability":"nonpayable","type":"function"},{"inputs":[{"internalType":"uint16","name":"","type":"uint16"}],"name":"trustedRemoteLookup","outputs":[{"internalType":"bytes","name":"","type":"bytes"}],"stateMutability":"view","type":"function"}],"devdoc":{"kind":"dev","methods":{"owner()":{"details":"Returns the address of the current owner."},"renounceOwnership()":{"details":"Leaves the contract without owner. It will not be possible to call `onlyOwner` functions. Can only be called by the current owner. NOTE: Renouncing ownership will leave the contract without an owner, thereby disabling any functionality that is only available to the owner."},"transferOwnership(address)":{"details":"Transfers ownership of the contract to a new account (`newOwner`). Can only be called by the current owner."}},"version":1},"evm":{"bytecode":{"linkReferences":{},"object":"60c0346100e657601f610f4c38819003918201601f19168301916001600160401b038311848410176100eb5780849260409485528339810103126100e657610052602061004b83610101565b9201610101565b60008054336001600160a01b0319821681178355604051946001600160a01b03949385939192918416907f8be0079c531659141344cd1fd0a4f28419497f9722a3daafe3b4186f6b6457e09080a360018055166080521660a052610e36908161011682396080518181816103ac01528181610722015281816107f10152610b64015260a0518181816106320152610a4f0152f35b600080fd5b634e487b7160e01b600052604160045260246000fd5b51906001600160a01b03821682036100e65756fe608080604052600436101561001357600080fd5b600090813560e01c90816315b86fab14610bea5750806339a52ef714610a7e578063461a758c14610a39578063709890d514610575578063715018a61461051b5780637533d7881461043a5780638da5cb5b14610413578063a02c0b98146103db578063b353aaa714610396578063cea9d26f146102df578063eb8d72b7146101725763f2fde38b146100a557600080fd5b3461016f57602036600319011261016f576100be610d0b565b6100c6610d21565b6001600160a01b0390811690811561011b57600054826bffffffffffffffffffffffff60a01b821617600055167f8be0079c531659141344cd1fd0a4f28419497f9722a3daafe3b4186f6b6457e0600080a380f35b60405162461bcd60e51b815260206004820152602660248201527f4f776e61626c653a206e6577206f776e657220697320746865207a65726f206160448201526564647265737360d01b6064820152608490fd5b80fd5b503461016f57604036600319011261016f5761018c610c1a565b9067ffffffffffffffff6024358181116102db576101b161ffff913690600401610c2b565b9190946101bc610d21565b16835260209360028552604084209282116102c7576101db8354610c59565b601f8111610284575b508394601f8311600114610221575093839482939492610216575b50508160011b916000199060031b1c191617905580f35b0135905038806101ff565b90601f198316958486528286209286905b88821061026c57505083600195969710610252575b505050811b01905580f35b0135600019600384901b60f8161c19169055388080610247565b80600184968294958701358155019501920190610232565b838552858520601f840160051c8101918785106102bd575b601f0160051c01905b8181106102b257506101e4565b8581556001016102a5565b909150819061029c565b634e487b7160e01b84526041600452602484fd5b8280fd5b503461016f57606036600319011261016f576102f9610d0b565b6001600160a01b0390602435828116919082900361039157604460209261031e610d21565b85604051958694859363a9059cbb60e01b8552600485015284356024850152165af180156103865761034e575080f35b6020813d821161037e575b8161036660209383610c93565b8101031261037a57518015150361016f5780f35b5080fd5b3d9150610359565b6040513d84823e3d90fd5b600080fd5b503461016f578060031936011261016f576040517f00000000000000000000000000000000000000000000000000000000000000006001600160a01b03168152602090f35b503461016f57604036600319011261016f5761ffff6103f8610c1a565b610400610d21565b1681526003602052602435604082205580f35b503461016f578060031936011261016f57546040516001600160a01b039091168152602090f35b503461016f5760208060031936011261037a5761ffff610458610c1a565b16825260028152604082206040518381949083549061047682610c59565b948585526001928784821691826000146104f75750506001146104bb575b5050506104a392500383610c93565b6104b7604051928284938452830190610ccb565b0390f35b869350819291528282205b8583106104df5750506104a39350820101388080610494565b805483890185015287945086939092019181016104c6565b9350945050506104a394915060ff191682840152151560051b820101388080610494565b503461016f578060031936011261016f57610534610d21565b600080546001600160a01b0319811682556001600160a01b03167f8be0079c531659141344cd1fd0a4f28419497f9722a3daafe3b4186f6b6457e08280a380f35b50602036600319011261016f5767ffffffffffffffff6004351161016f5760e06004353603600319011261016f576002600154146109f457600260015560446004350135156109be5761ffff6105cf600435600401610d79565b16815260026020526105e46040822054610c59565b156109795761062690606061060360c460043501600435600401610d88565b6040519485928392635236a3e760e11b8452604060048501526044840191610dbb565b602482018590520381847f00000000000000000000000000000000000000000000000000000000000000006001600160a01b03165af191821561096c578192610939575b506106ae610682602460043501600435600401610d88565b6106a085604094939451948593604460043501359160208601610ddc565b03601f198101835282610c93565b6106bc600435600401610d79565b9061ffff6106ce600435600401610d79565b16835260026020526040832060043560640135916001600160a01b038316830361093557600435608401356001600160a01b03811681036109315761071d60a460043501600435600401610d88565b9390927f00000000000000000000000000000000000000000000000000000000000000006001600160a01b03163b1561092d57918795939161ffff97959360405198899762c5803160e81b895216600488015260c06024880152879180549061078582610c59565b918260c48b0152896001821691826000146109055750506001146108c2575b5050916107c4879694926107ec96946003198983030160448a0152610ccb565b6001600160a01b039485166064880152931660848601528483036003190160a4860152610dbb565b0381347f00000000000000000000000000000000000000000000000000000000000000006001600160a01b03165af1801561038657610896575b509061088c7ffddccbc9551702941ca319ef875152663df18c2a77c25b17b88f42ee51ae98bf61ffff61085d600435600401610d79565b610871602460043501600435600401610d88565b94909560405193849316963396604460043501359185610ddc565b0390a36001805580f35b67ffffffffffffffff81116108ae5760405238610826565b634e487b7160e01b82526041600452602482fd5b89526020892091925088915b8183106108e8575050860160e401906107c46107ec6107a4565b805460e4848d0101528b99508a98506020909201916001016108ce565b60ff191660e48083019190915293151560051b0190920193506107c491506107ec90506107a4565b8780fd5b8580fd5b8480fd5b9091506060813d8211610964575b8161095460609383610c93565b8101031261037a5751903861066a565b3d9150610947565b50604051903d90823e3d90fd5b60405162461bcd60e51b815260206004820152601d60248201527f44657374696e6174696f6e20636861696e206e6f7420747275737465640000006044820152606490fd5b60405162461bcd60e51b815260206004820152600e60248201526d125b9d985b1a5908185b5bdd5b9d60921b6044820152606490fd5b60405162461bcd60e51b815260206004820152601f60248201527f5265656e7472616e637947756172643a207265656e7472616e742063616c6c006044820152606490fd5b503461016f578060031936011261016f576040517f00000000000000000000000000000000000000000000000000000000000000006001600160a01b03168152602090f35b503461016f5760031960803682011261037a57610a99610c1a565b9067ffffffffffffffff60243581811161093557610abb903690600401610c2b565b60649491943592831161093157604093610b1a610b6092610ae361ffff963690600401610c2b565b929091610aff89519a8b92606060208501526080840191610dbb565b6044358a8301528b606083015203601f1981018a5289610c93565b610b4b8751988997889763040a7bb160e41b895216600488015230602488015260a0604488015260a4870190610ccb565b92896064870152858403016084860152610dbb565b03817f00000000000000000000000000000000000000000000000000000000000000006001600160a01b03165afa80156103865782918391610bad575b6040838382519182526020820152f35b9150506040813d604011610be2575b81610bc960409383610c93565b8101031261037a57604091506020815191015138610b9d565b3d9150610bbc565b90503461037a57602036600319011261037a57604060209261ffff610c0d610c1a565b1681526003845220548152f35b6004359061ffff8216820361039157565b9181601f840112156103915782359167ffffffffffffffff8311610391576020838186019501011161039157565b90600182811c92168015610c89575b6020831014610c7357565b634e487b7160e01b600052602260045260246000fd5b91607f1691610c68565b90601f8019910116810190811067ffffffffffffffff821117610cb557604052565b634e487b7160e01b600052604160045260246000fd5b919082519283825260005b848110610cf7575050826000602080949584010152601f8019910116010190565b602081830181015184830182015201610cd6565b600435906001600160a01b038216820361039157565b6000546001600160a01b03163303610d3557565b606460405162461bcd60e51b815260206004820152602060248201527f4f776e61626c653a2063616c6c6572206973206e6f7420746865206f776e65726044820152fd5b3561ffff811681036103915790565b903590601e1981360301821215610391570180359067ffffffffffffffff82116103915760200191813603831361039157565b908060209392818452848401376000828201840152601f01601f1916010190565b90610df69060409396959496606084526060840191610dbb565b946020820152015256fea26469706673582212206745ca71bb46d43c8401dd7aeb95918b8ed41331c6dbdf1dae930c77ebe21e5964736f6c63430008130033","opcodes":"PUSH1 0xC0 CALLVALUE PUSH2 0xE6 JUMPI PUSH1 0x1F PUSH2 0xF4C CODESIZE DUP2 SWAP1 SUB SWAP2 DUP3 ADD PUSH1 0x1F NOT AND DUP4 ADD SWAP2 PUSH1 0x1 PUSH1 0x1 PUSH1 0x40 SHL SUB DUP4 GT DUP5 DUP5 LT OR PUSH2 0xEB JUMPI DUP1 DUP5 SWAP3 PUSH1 0x40 SWAP5 DUP6 MSTORE DUP4 CODECOPY DUP2 ADD SUB SLT PUSH2 0xE6 JUMPI PUSH2 0x52 PUSH1 0x20 PUSH2 0x4B DUP4 PUSH2 0x101 JUMP JUMPDEST SWAP3 ADD PUSH2 0x101 JUMP JUMPDEST PUSH1 0x0 DUP1 SLOAD CALLER PUSH1 0x1 PUSH1 0x1 PUSH1 0xA0 SHL SUB NOT DUP3 AND DUP2 OR DUP4 SSTORE PUSH1 0x40 MLOAD SWAP5 PUSH1 0x1 PUSH1 0x1 PUSH1 0xA0 SHL SUB SWAP5 SWAP4 DUP6 SWAP4 SWAP2 SWAP3 SWAP2 DUP5 AND SWAP1 PUSH32 0x8BE0079C531659141344CD1FD0A4F28419497F9722A3DAAFE3B4186F6B6457E0 SWAP1 DUP1 LOG3 PUSH1 0x1 DUP1 SSTORE AND PUSH1 0x80 MSTORE AND PUSH1 0xA0 MSTORE PUSH2 0xE36 SWAP1 DUP2 PUSH2 0x116 DUP3 CODECOPY PUSH1 0x80 MLOAD DUP2 DUP2 DUP2 PUSH2 0x3AC ADD MSTORE DUP2 DUP2 PUSH2 0x722 ADD MSTORE DUP2 DUP2 PUSH2 0x7F1 ADD MSTORE PUSH2 0xB64 ADD MSTORE PUSH1 0xA0 MLOAD DUP2 DUP2 DUP2 PUSH2 0x632 ADD MSTORE PUSH2 0xA4F ADD MSTORE RETURN JUMPDEST PUSH1 0x0 DUP1 REVERT JUMPDEST PUSH4 0x4E487B71 PUSH1 0xE0 SHL PUSH1 0x0 MSTORE PUSH1 0x41 PUSH1 0x4 MSTORE PUSH1 0x24 PUSH1 0x0 REVERT JUMPDEST MLOAD SWAP1 PUSH1 0x1 PUSH1 0x1 PUSH1 0xA0 SHL SUB DUP3 AND DUP3 SUB PUSH2 0xE6 JUMPI JUMP INVALID PUSH1 0x80 DUP1 PUSH1 0x40 MSTORE PUSH1 0x4 CALLDATASIZE LT ISZERO PUSH2 0x13 JUMPI PUSH1 0x0 DUP1 REVERT JUMPDEST PUSH1 0x0 SWAP1 DUP2 CALLDATALOAD PUSH1 0xE0 SHR SWAP1 DUP2 PUSH4 0x15B86FAB EQ PUSH2 0xBEA JUMPI POP DUP1 PUSH4 0x39A52EF7 EQ PUSH2 0xA7E JUMPI DUP1 PUSH4 0x461A758C EQ PUSH2 0xA39 JUMPI DUP1 PUSH4 0x709890D5 EQ PUSH2 0x575 JUMPI DUP1 PUSH4 0x715018A6 EQ PUSH2 0x51B JUMPI DUP1 PUSH4 0x7533D788 EQ PUSH2 0x43A JUMPI DUP1 PUSH4 0x8DA5CB5B EQ PUSH2 0x413 JUMPI DUP1 PUSH4 0xA02C0B98 EQ PUSH2 0x3DB JUMPI DUP1 PUSH4 0xB353AAA7 EQ PUSH2 0x396 JUMPI DUP1 PUSH4 0xCEA9D26F EQ PUSH2 0x2DF JUMPI DUP1 PUSH4 0xEB8D72B7 EQ PUSH2 0x172 JUMPI PUSH4 0xF2FDE38B EQ PUSH2 0xA5 JUMPI PUSH1 0x0 DUP1 REVERT JUMPDEST CALLVALUE PUSH2 0x16F JUMPI PUSH1 0x20 CALLDATASIZE PUSH1 0x3 NOT ADD SLT PUSH2 0x16F JUMPI PUSH2 0xBE PUSH2 0xD0B JUMP JUMPDEST PUSH2 0xC6 PUSH2 0xD21 JUMP JUMPDEST PUSH1 0x1 PUSH1 0x1 PUSH1 0xA0 SHL SUB SWAP1 DUP2 AND SWAP1 DUP2 ISZERO PUSH2 0x11B JUMPI PUSH1 0x0 SLOAD DUP3 PUSH12 0xFFFFFFFFFFFFFFFFFFFFFFFF PUSH1 0xA0 SHL DUP3 AND OR PUSH1 0x0 SSTORE AND PUSH32 0x8BE0079C531659141344CD1FD0A4F28419497F9722A3DAAFE3B4186F6B6457E0 PUSH1 0x0 DUP1 LOG3 DUP1 RETURN JUMPDEST PUSH1 0x40 MLOAD PUSH3 0x461BCD PUSH1 0xE5 SHL DUP2 MSTORE PUSH1 0x20 PUSH1 0x4 DUP3 ADD MSTORE PUSH1 0x26 PUSH1 0x24 DUP3 ADD MSTORE PUSH32 0x4F776E61626C653A206E6577206F776E657220697320746865207A65726F2061 PUSH1 0x44 DUP3 ADD MSTORE PUSH6 0x646472657373 PUSH1 0xD0 SHL PUSH1 0x64 DUP3 ADD MSTORE PUSH1 0x84 SWAP1 REVERT JUMPDEST DUP1 REVERT JUMPDEST POP CALLVALUE PUSH2 0x16F JUMPI PUSH1 0x40 CALLDATASIZE PUSH1 0x3 NOT ADD SLT PUSH2 0x16F JUMPI PUSH2 0x18C PUSH2 0xC1A JUMP JUMPDEST SWAP1 PUSH8 0xFFFFFFFFFFFFFFFF PUSH1 0x24 CALLDATALOAD DUP2 DUP2 GT PUSH2 0x2DB JUMPI PUSH2 0x1B1 PUSH2 0xFFFF SWAP2 CALLDATASIZE SWAP1 PUSH1 0x4 ADD PUSH2 0xC2B JUMP JUMPDEST SWAP2 SWAP1 SWAP5 PUSH2 0x1BC PUSH2 0xD21 JUMP JUMPDEST AND DUP4 MSTORE PUSH1 0x20 SWAP4 PUSH1 0x2 DUP6 MSTORE PUSH1 0x40 DUP5 KECCAK256 SWAP3 DUP3 GT PUSH2 0x2C7 JUMPI PUSH2 0x1DB DUP4 SLOAD PUSH2 0xC59 JUMP JUMPDEST PUSH1 0x1F DUP2 GT PUSH2 0x284 JUMPI JUMPDEST POP DUP4 SWAP5 PUSH1 0x1F DUP4 GT PUSH1 0x1 EQ PUSH2 0x221 JUMPI POP SWAP4 DUP4 SWAP5 DUP3 SWAP4 SWAP5 SWAP3 PUSH2 0x216 JUMPI JUMPDEST POP POP DUP2 PUSH1 0x1 SHL SWAP2 PUSH1 0x0 NOT SWAP1 PUSH1 0x3 SHL SHR NOT AND OR SWAP1 SSTORE DUP1 RETURN JUMPDEST ADD CALLDATALOAD SWAP1 POP CODESIZE DUP1 PUSH2 0x1FF JUMP JUMPDEST SWAP1 PUSH1 0x1F NOT DUP4 AND SWAP6 DUP5 DUP7 MSTORE DUP3 DUP7 KECCAK256 SWAP3 DUP7 SWAP1 JUMPDEST DUP9 DUP3 LT PUSH2 0x26C JUMPI POP POP DUP4 PUSH1 0x1 SWAP6 SWAP7 SWAP8 LT PUSH2 0x252 JUMPI JUMPDEST POP POP POP DUP2 SHL ADD SWAP1 SSTORE DUP1 RETURN JUMPDEST ADD CALLDATALOAD PUSH1 0x0 NOT PUSH1 0x3 DUP5 SWAP1 SHL PUSH1 0xF8 AND SHR NOT AND SWAP1 SSTORE CODESIZE DUP1 DUP1 PUSH2 0x247 JUMP JUMPDEST DUP1 PUSH1 0x1 DUP5 SWAP7 DUP3 SWAP5 SWAP6 DUP8 ADD CALLDATALOAD DUP2 SSTORE ADD SWAP6 ADD SWAP3 ADD SWAP1 PUSH2 0x232 JUMP JUMPDEST DUP4 DUP6 MSTORE DUP6 DUP6 KECCAK256 PUSH1 0x1F DUP5 ADD PUSH1 0x5 SHR DUP2 ADD SWAP2 DUP8 DUP6 LT PUSH2 0x2BD JUMPI JUMPDEST PUSH1 0x1F ADD PUSH1 0x5 SHR ADD SWAP1 JUMPDEST DUP2 DUP2 LT PUSH2 0x2B2 JUMPI POP PUSH2 0x1E4 JUMP JUMPDEST DUP6 DUP2 SSTORE PUSH1 0x1 ADD PUSH2 0x2A5 JUMP JUMPDEST SWAP1 SWAP2 POP DUP2 SWAP1 PUSH2 0x29C JUMP JUMPDEST PUSH4 0x4E487B71 PUSH1 0xE0 SHL DUP5 MSTORE PUSH1 0x41 PUSH1 0x4 MSTORE PUSH1 0x24 DUP5 REVERT JUMPDEST DUP3 DUP1 REVERT JUMPDEST POP CALLVALUE PUSH2 0x16F JUMPI PUSH1 0x60 CALLDATASIZE PUSH1 0x3 NOT ADD SLT PUSH2 0x16F JUMPI PUSH2 0x2F9 PUSH2 0xD0B JUMP JUMPDEST PUSH1 0x1 PUSH1 0x1 PUSH1 0xA0 SHL SUB SWAP1 PUSH1 0x24 CALLDATALOAD DUP3 DUP2 AND SWAP2 SWAP1 DUP3 SWAP1 SUB PUSH2 0x391 JUMPI PUSH1 0x44 PUSH1 0x20 SWAP3 PUSH2 0x31E PUSH2 0xD21 JUMP JUMPDEST DUP6 PUSH1 0x40 MLOAD SWAP6 DUP7 SWAP5 DUP6 SWAP4 PUSH4 0xA9059CBB PUSH1 0xE0 SHL DUP6 MSTORE PUSH1 0x4 DUP6 ADD MSTORE DUP5 CALLDATALOAD PUSH1 0x24 DUP6 ADD MSTORE AND GAS CALL DUP1 ISZERO PUSH2 0x386 JUMPI PUSH2 0x34E JUMPI POP DUP1 RETURN JUMPDEST PUSH1 0x20 DUP2 RETURNDATASIZE DUP3 GT PUSH2 0x37E JUMPI JUMPDEST DUP2 PUSH2 0x366 PUSH1 0x20 SWAP4 DUP4 PUSH2 0xC93 JUMP JUMPDEST DUP2 ADD SUB SLT PUSH2 0x37A JUMPI MLOAD DUP1 ISZERO ISZERO SUB PUSH2 0x16F JUMPI DUP1 RETURN JUMPDEST POP DUP1 REVERT JUMPDEST RETURNDATASIZE SWAP2 POP PUSH2 0x359 JUMP JUMPDEST PUSH1 0x40 MLOAD RETURNDATASIZE DUP5 DUP3 RETURNDATACOPY RETURNDATASIZE SWAP1 REVERT JUMPDEST PUSH1 0x0 DUP1 REVERT JUMPDEST POP CALLVALUE PUSH2 0x16F JUMPI DUP1 PUSH1 0x3 NOT CALLDATASIZE ADD SLT PUSH2 0x16F JUMPI PUSH1 0x40 MLOAD PUSH32 0x0 PUSH1 0x1 PUSH1 0x1 PUSH1 0xA0 SHL SUB AND DUP2 MSTORE PUSH1 0x20 SWAP1 RETURN JUMPDEST POP CALLVALUE PUSH2 0x16F JUMPI PUSH1 0x40 CALLDATASIZE PUSH1 0x3 NOT ADD SLT PUSH2 0x16F JUMPI PUSH2 0xFFFF PUSH2 0x3F8 PUSH2 0xC1A JUMP JUMPDEST PUSH2 0x400 PUSH2 0xD21 JUMP JUMPDEST AND DUP2 MSTORE PUSH1 0x3 PUSH1 0x20 MSTORE PUSH1 0x24 CALLDATALOAD PUSH1 0x40 DUP3 KECCAK256 SSTORE DUP1 RETURN JUMPDEST POP CALLVALUE PUSH2 0x16F JUMPI DUP1 PUSH1 0x3 NOT CALLDATASIZE ADD SLT PUSH2 0x16F JUMPI SLOAD PUSH1 0x40 MLOAD PUSH1 0x1 PUSH1 0x1 PUSH1 0xA0 SHL SUB SWAP1 SWAP2 AND DUP2 MSTORE PUSH1 0x20 SWAP1 RETURN JUMPDEST POP CALLVALUE PUSH2 0x16F JUMPI PUSH1 0x20 DUP1 PUSH1 0x3 NOT CALLDATASIZE ADD SLT PUSH2 0x37A JUMPI PUSH2 0xFFFF PUSH2 0x458 PUSH2 0xC1A JUMP JUMPDEST AND DUP3 MSTORE PUSH1 0x2 DUP2 MSTORE PUSH1 0x40 DUP3 KECCAK256 PUSH1 0x40 MLOAD DUP4 DUP2 SWAP5 SWAP1 DUP4 SLOAD SWAP1 PUSH2 0x476 DUP3 PUSH2 0xC59 JUMP JUMPDEST SWAP5 DUP6 DUP6 MSTORE PUSH1 0x1 SWAP3 DUP8 DUP5 DUP3 AND SWAP2 DUP3 PUSH1 0x0 EQ PUSH2 0x4F7 JUMPI POP POP PUSH1 0x1 EQ PUSH2 0x4BB JUMPI JUMPDEST POP POP POP PUSH2 0x4A3 SWAP3 POP SUB DUP4 PUSH2 0xC93 JUMP JUMPDEST PUSH2 0x4B7 PUSH1 0x40 MLOAD SWAP3 DUP3 DUP5 SWAP4 DUP5 MSTORE DUP4 ADD SWAP1 PUSH2 0xCCB JUMP JUMPDEST SUB SWAP1 RETURN JUMPDEST DUP7 SWAP4 POP DUP2 SWAP3 SWAP2 MSTORE DUP3 DUP3 KECCAK256 JUMPDEST DUP6 DUP4 LT PUSH2 0x4DF JUMPI POP POP PUSH2 0x4A3 SWAP4 POP DUP3 ADD ADD CODESIZE DUP1 DUP1 PUSH2 0x494 JUMP JUMPDEST DUP1 SLOAD DUP4 DUP10 ADD DUP6 ADD MSTORE DUP8 SWAP5 POP DUP7 SWAP4 SWAP1 SWAP3 ADD SWAP2 DUP2 ADD PUSH2 0x4C6 JUMP JUMPDEST SWAP4 POP SWAP5 POP POP POP PUSH2 0x4A3 SWAP5 SWAP2 POP PUSH1 0xFF NOT AND DUP3 DUP5 ADD MSTORE ISZERO ISZERO PUSH1 0x5 SHL DUP3 ADD ADD CODESIZE DUP1 DUP1 PUSH2 0x494 JUMP JUMPDEST POP CALLVALUE PUSH2 0x16F JUMPI DUP1 PUSH1 0x3 NOT CALLDATASIZE ADD SLT PUSH2 0x16F JUMPI PUSH2 0x534 PUSH2 0xD21 JUMP JUMPDEST PUSH1 0x0 DUP1 SLOAD PUSH1 0x1 PUSH1 0x1 PUSH1 0xA0 SHL SUB NOT DUP2 AND DUP3 SSTORE PUSH1 0x1 PUSH1 0x1 PUSH1 0xA0 SHL SUB AND PUSH32 0x8BE0079C531659141344CD1FD0A4F28419497F9722A3DAAFE3B4186F6B6457E0 DUP3 DUP1 LOG3 DUP1 RETURN JUMPDEST POP PUSH1 0x20 CALLDATASIZE PUSH1 0x3 NOT ADD SLT PUSH2 0x16F JUMPI PUSH8 0xFFFFFFFFFFFFFFFF PUSH1 0x4 CALLDATALOAD GT PUSH2 0x16F JUMPI PUSH1 0xE0 PUSH1 0x4 CALLDATALOAD CALLDATASIZE SUB PUSH1 0x3 NOT ADD SLT PUSH2 0x16F JUMPI PUSH1 0x2 PUSH1 0x1 SLOAD EQ PUSH2 0x9F4 JUMPI PUSH1 0x2 PUSH1 0x1 SSTORE PUSH1 0x44 PUSH1 0x4 CALLDATALOAD ADD CALLDATALOAD ISZERO PUSH2 0x9BE JUMPI PUSH2 0xFFFF PUSH2 0x5CF PUSH1 0x4 CALLDATALOAD PUSH1 0x4 ADD PUSH2 0xD79 JUMP JUMPDEST AND DUP2 MSTORE PUSH1 0x2 PUSH1 0x20 MSTORE PUSH2 0x5E4 PUSH1 0x40 DUP3 KECCAK256 SLOAD PUSH2 0xC59 JUMP JUMPDEST ISZERO PUSH2 0x979 JUMPI PUSH2 0x626 SWAP1 PUSH1 0x60 PUSH2 0x603 PUSH1 0xC4 PUSH1 0x4 CALLDATALOAD ADD PUSH1 0x4 CALLDATALOAD PUSH1 0x4 ADD PUSH2 0xD88 JUMP JUMPDEST PUSH1 0x40 MLOAD SWAP5 DUP6 SWAP3 DUP4 SWAP3 PUSH4 0x5236A3E7 PUSH1 0xE1 SHL DUP5 MSTORE PUSH1 0x40 PUSH1 0x4 DUP6 ADD MSTORE PUSH1 0x44 DUP5 ADD SWAP2 PUSH2 0xDBB JUMP JUMPDEST PUSH1 0x24 DUP3 ADD DUP6 SWAP1 MSTORE SUB DUP2 DUP5 PUSH32 0x0 PUSH1 0x1 PUSH1 0x1 PUSH1 0xA0 SHL SUB AND GAS CALL SWAP2 DUP3 ISZERO PUSH2 0x96C JUMPI DUP2 SWAP3 PUSH2 0x939 JUMPI JUMPDEST POP PUSH2 0x6AE PUSH2 0x682 PUSH1 0x24 PUSH1 0x4 CALLDATALOAD ADD PUSH1 0x4 CALLDATALOAD PUSH1 0x4 ADD PUSH2 0xD88 JUMP JUMPDEST PUSH2 0x6A0 DUP6 PUSH1 0x40 SWAP5 SWAP4 SWAP5 MLOAD SWAP5 DUP6 SWAP4 PUSH1 0x44 PUSH1 0x4 CALLDATALOAD ADD CALLDATALOAD SWAP2 PUSH1 0x20 DUP7 ADD PUSH2 0xDDC JUMP JUMPDEST SUB PUSH1 0x1F NOT DUP2 ADD DUP4 MSTORE DUP3 PUSH2 0xC93 JUMP JUMPDEST PUSH2 0x6BC PUSH1 0x4 CALLDATALOAD PUSH1 0x4 ADD PUSH2 0xD79 JUMP JUMPDEST SWAP1 PUSH2 0xFFFF PUSH2 0x6CE PUSH1 0x4 CALLDATALOAD PUSH1 0x4 ADD PUSH2 0xD79 JUMP JUMPDEST AND DUP4 MSTORE PUSH1 0x2 PUSH1 0x20 MSTORE PUSH1 0x40 DUP4 KECCAK256 PUSH1 0x4 CALLDATALOAD PUSH1 0x64 ADD CALLDATALOAD SWAP2 PUSH1 0x1 PUSH1 0x1 PUSH1 0xA0 SHL SUB DUP4 AND DUP4 SUB PUSH2 0x935 JUMPI PUSH1 0x4 CALLDATALOAD PUSH1 0x84 ADD CALLDATALOAD PUSH1 0x1 PUSH1 0x1 PUSH1 0xA0 SHL SUB DUP2 AND DUP2 SUB PUSH2 0x931 JUMPI PUSH2 0x71D PUSH1 0xA4 PUSH1 0x4 CALLDATALOAD ADD PUSH1 0x4 CALLDATALOAD PUSH1 0x4 ADD PUSH2 0xD88 JUMP JUMPDEST SWAP4 SWAP1 SWAP3 PUSH32 0x0 PUSH1 0x1 PUSH1 0x1 PUSH1 0xA0 SHL SUB AND EXTCODESIZE ISZERO PUSH2 0x92D JUMPI SWAP2 DUP8 SWAP6 SWAP4 SWAP2 PUSH2 0xFFFF SWAP8 SWAP6 SWAP4 PUSH1 0x40 MLOAD SWAP9 DUP10 SWAP8 PUSH3 0xC58031 PUSH1 0xE8 SHL DUP10 MSTORE AND PUSH1 0x4 DUP9 ADD MSTORE PUSH1 0xC0 PUSH1 0x24 DUP9 ADD MSTORE DUP8 SWAP2 DUP1 SLOAD SWAP1 PUSH2 0x785 DUP3 PUSH2 0xC59 JUMP JUMPDEST SWAP2 DUP3 PUSH1 0xC4 DUP12 ADD MSTORE DUP10 PUSH1 0x1 DUP3 AND SWAP2 DUP3 PUSH1 0x0 EQ PUSH2 0x905 JUMPI POP POP PUSH1 0x1 EQ PUSH2 0x8C2 JUMPI JUMPDEST POP POP SWAP2 PUSH2 0x7C4 DUP8 SWAP7 SWAP5 SWAP3 PUSH2 0x7EC SWAP7 SWAP5 PUSH1 0x3 NOT DUP10 DUP4 SUB ADD PUSH1 0x44 DUP11 ADD MSTORE PUSH2 0xCCB JUMP JUMPDEST PUSH1 0x1 PUSH1 0x1 PUSH1 0xA0 SHL SUB SWAP5 DUP6 AND PUSH1 0x64 DUP9 ADD MSTORE SWAP4 AND PUSH1 0x84 DUP7 ADD MSTORE DUP5 DUP4 SUB PUSH1 0x3 NOT ADD PUSH1 0xA4 DUP7 ADD MSTORE PUSH2 0xDBB JUMP JUMPDEST SUB DUP2 CALLVALUE PUSH32 0x0 PUSH1 0x1 PUSH1 0x1 PUSH1 0xA0 SHL SUB AND GAS CALL DUP1 ISZERO PUSH2 0x386 JUMPI PUSH2 0x896 JUMPI JUMPDEST POP SWAP1 PUSH2 0x88C PUSH32 0xFDDCCBC9551702941CA319EF875152663DF18C2A77C25B17B88F42EE51AE98BF PUSH2 0xFFFF PUSH2 0x85D PUSH1 0x4 CALLDATALOAD PUSH1 0x4 ADD PUSH2 0xD79 JUMP JUMPDEST PUSH2 0x871 PUSH1 0x24 PUSH1 0x4 CALLDATALOAD ADD PUSH1 0x4 CALLDATALOAD PUSH1 0x4 ADD PUSH2 0xD88 JUMP JUMPDEST SWAP5 SWAP1 SWAP6 PUSH1 0x40 MLOAD SWAP4 DUP5 SWAP4 AND SWAP7 CALLER SWAP7 PUSH1 0x44 PUSH1 0x4 CALLDATALOAD ADD CALLDATALOAD SWAP2 DUP6 PUSH2 0xDDC JUMP JUMPDEST SUB SWAP1 LOG3 PUSH1 0x1 DUP1 SSTORE DUP1 RETURN JUMPDEST PUSH8 0xFFFFFFFFFFFFFFFF DUP2 GT PUSH2 0x8AE JUMPI PUSH1 0x40 MSTORE CODESIZE PUSH2 0x826 JUMP JUMPDEST PUSH4 0x4E487B71 PUSH1 0xE0 SHL DUP3 MSTORE PUSH1 0x41 PUSH1 0x4 MSTORE PUSH1 0x24 DUP3 REVERT JUMPDEST DUP10 MSTORE PUSH1 0x20 DUP10 KECCAK256 SWAP2 SWAP3 POP DUP9 SWAP2 JUMPDEST DUP2 DUP4 LT PUSH2 0x8E8 JUMPI POP POP DUP7 ADD PUSH1 0xE4 ADD SWAP1 PUSH2 0x7C4 PUSH2 0x7EC PUSH2 0x7A4 JUMP JUMPDEST DUP1 SLOAD PUSH1 0xE4 DUP5 DUP14 ADD ADD MSTORE DUP12 SWAP10 POP DUP11 SWAP9 POP PUSH1 0x20 SWAP1 SWAP3 ADD SWAP2 PUSH1 0x1 ADD PUSH2 0x8CE JUMP JUMPDEST PUSH1 0xFF NOT AND PUSH1 0xE4 DUP1 DUP4 ADD SWAP2 SWAP1 SWAP2 MSTORE SWAP4 ISZERO ISZERO PUSH1 0x5 SHL ADD SWAP1 SWAP3 ADD SWAP4 POP PUSH2 0x7C4 SWAP2 POP PUSH2 0x7EC SWAP1 POP PUSH2 0x7A4 JUMP JUMPDEST DUP8 DUP1 REVERT JUMPDEST DUP6 DUP1 REVERT JUMPDEST DUP5 DUP1 REVERT JUMPDEST SWAP1 SWAP2 POP PUSH1 0x60 DUP2 RETURNDATASIZE DUP3 GT PUSH2 0x964 JUMPI JUMPDEST DUP2 PUSH2 0x954 PUSH1 0x60 SWAP4 DUP4 PUSH2 0xC93 JUMP JUMPDEST DUP2 ADD SUB SLT PUSH2 0x37A JUMPI MLOAD SWAP1 CODESIZE PUSH2 0x66A JUMP JUMPDEST RETURNDATASIZE SWAP2 POP PUSH2 0x947 JUMP JUMPDEST POP PUSH1 0x40 MLOAD SWAP1 RETURNDATASIZE SWAP1 DUP3 RETURNDATACOPY RETURNDATASIZE SWAP1 REVERT JUMPDEST PUSH1 0x40 MLOAD PUSH3 0x461BCD PUSH1 0xE5 SHL DUP2 MSTORE PUSH1 0x20 PUSH1 0x4 DUP3 ADD MSTORE PUSH1 0x1D PUSH1 0x24 DUP3 ADD MSTORE PUSH32 0x44657374696E6174696F6E20636861696E206E6F742074727573746564000000 PUSH1 0x44 DUP3 ADD MSTORE PUSH1 0x64 SWAP1 REVERT JUMPDEST PUSH1 0x40 MLOAD PUSH3 0x461BCD PUSH1 0xE5 SHL DUP2 MSTORE PUSH1 0x20 PUSH1 0x4 DUP3 ADD MSTORE PUSH1 0xE PUSH1 0x24 DUP3 ADD MSTORE PUSH14 0x125B9D985B1A5908185B5BDD5B9D PUSH1 0x92 SHL PUSH1 0x44 DUP3 ADD MSTORE PUSH1 0x64 SWAP1 REVERT JUMPDEST PUSH1 0x40 MLOAD PUSH3 0x461BCD PUSH1 0xE5 SHL DUP2 MSTORE PUSH1 0x20 PUSH1 0x4 DUP3 ADD MSTORE PUSH1 0x1F PUSH1 0x24 DUP3 ADD MSTORE PUSH32 0x5265656E7472616E637947756172643A207265656E7472616E742063616C6C00 PUSH1 0x44 DUP3 ADD MSTORE PUSH1 0x64 SWAP1 REVERT JUMPDEST POP CALLVALUE PUSH2 0x16F JUMPI DUP1 PUSH1 0x3 NOT CALLDATASIZE ADD SLT PUSH2 0x16F JUMPI PUSH1 0x40 MLOAD PUSH32 0x0 PUSH1 0x1 PUSH1 0x1 PUSH1 0xA0 SHL SUB AND DUP2 MSTORE PUSH1 0x20 SWAP1 RETURN JUMPDEST POP CALLVALUE PUSH2 0x16F JUMPI PUSH1 0x3 NOT PUSH1 0x80 CALLDATASIZE DUP3 ADD SLT PUSH2 0x37A JUMPI PUSH2 0xA99 PUSH2 0xC1A JUMP JUMPDEST SWAP1 PUSH8 0xFFFFFFFFFFFFFFFF PUSH1 0x24 CALLDATALOAD DUP2 DUP2 GT PUSH2 0x935 JUMPI PUSH2 0xABB SWAP1 CALLDATASIZE SWAP1 PUSH1 0x4 ADD PUSH2 0xC2B JUMP JUMPDEST PUSH1 0x64 SWAP5 SWAP2 SWAP5 CALLDATALOAD SWAP3 DUP4 GT PUSH2 0x931 JUMPI PUSH1 0x40 SWAP4 PUSH2 0xB1A PUSH2 0xB60 SWAP3 PUSH2 0xAE3 PUSH2 0xFFFF SWAP7 CALLDATASIZE SWAP1 PUSH1 0x4 ADD PUSH2 0xC2B JUMP JUMPDEST SWAP3 SWAP1 SWAP2 PUSH2 0xAFF DUP10 MLOAD SWAP11 DUP12 SWAP3 PUSH1 0x60 PUSH1 0x20 DUP6 ADD MSTORE PUSH1 0x80 DUP5 ADD SWAP2 PUSH2 0xDBB JUMP JUMPDEST PUSH1 0x44 CALLDATALOAD DUP11 DUP4 ADD MSTORE DUP12 PUSH1 0x60 DUP4 ADD MSTORE SUB PUSH1 0x1F NOT DUP2 ADD DUP11 MSTORE DUP10 PUSH2 0xC93 JUMP JUMPDEST PUSH2 0xB4B DUP8 MLOAD SWAP9 DUP10 SWAP8 DUP9 SWAP8 PUSH4 0x40A7BB1 PUSH1 0xE4 SHL DUP10 MSTORE AND PUSH1 0x4 DUP9 ADD MSTORE ADDRESS PUSH1 0x24 DUP9 ADD MSTORE PUSH1 0xA0 PUSH1 0x44 DUP9 ADD MSTORE PUSH1 0xA4 DUP8 ADD SWAP1 PUSH2 0xCCB JUMP JUMPDEST SWAP3 DUP10 PUSH1 0x64 DUP8 ADD MSTORE DUP6 DUP5 SUB ADD PUSH1 0x84 DUP7 ADD MSTORE PUSH2 0xDBB JUMP JUMPDEST SUB DUP2 PUSH32 0x0 PUSH1 0x1 PUSH1 0x1 PUSH1 0xA0 SHL SUB AND GAS STATICCALL DUP1 ISZERO PUSH2 0x386 JUMPI DUP3 SWAP2 DUP4 SWAP2 PUSH2 0xBAD JUMPI JUMPDEST PUSH1 0x40 DUP4 DUP4 DUP3 MLOAD SWAP2 DUP3 MSTORE PUSH1 0x20 DUP3 ADD MSTORE RETURN JUMPDEST SWAP2 POP POP PUSH1 0x40 DUP2 RETURNDATASIZE PUSH1 0x40 GT PUSH2 0xBE2 JUMPI JUMPDEST DUP2 PUSH2 0xBC9 PUSH1 0x40 SWAP4 DUP4 PUSH2 0xC93 JUMP JUMPDEST DUP2 ADD SUB SLT PUSH2 0x37A JUMPI PUSH1 0x40 SWAP2 POP PUSH1 0x20 DUP2 MLOAD SWAP2 ADD MLOAD CODESIZE PUSH2 0xB9D JUMP JUMPDEST RETURNDATASIZE SWAP2 POP PUSH2 0xBBC JUMP JUMPDEST SWAP1 POP CALLVALUE PUSH2 0x37A JUMPI PUSH1 0x20 CALLDATASIZE PUSH1 0x3 NOT ADD SLT PUSH2 0x37A JUMPI PUSH1 0x40 PUSH1 0x20 SWAP3 PUSH2 0xFFFF PUSH2 0xC0D PUSH2 0xC1A JUMP JUMPDEST AND DUP2 MSTORE PUSH1 0x3 DUP5 MSTORE KECCAK256 SLOAD DUP2 MSTORE RETURN JUMPDEST PUSH1 0x4 CALLDATALOAD SWAP1 PUSH2 0xFFFF DUP3 AND DUP3 SUB PUSH2 0x391 JUMPI JUMP JUMPDEST SWAP2 DUP2 PUSH1 0x1F DUP5 ADD SLT ISZERO PUSH2 0x391 JUMPI DUP3 CALLDATALOAD SWAP2 PUSH8 0xFFFFFFFFFFFFFFFF DUP4 GT PUSH2 0x391 JUMPI PUSH1 0x20 DUP4 DUP2 DUP7 ADD SWAP6 ADD ADD GT PUSH2 0x391 JUMPI JUMP JUMPDEST SWAP1 PUSH1 0x1 DUP3 DUP2 SHR SWAP3 AND DUP1 ISZERO PUSH2 0xC89 JUMPI JUMPDEST PUSH1 0x20 DUP4 LT EQ PUSH2 0xC73 JUMPI JUMP JUMPDEST PUSH4 0x4E487B71 PUSH1 0xE0 SHL PUSH1 0x0 MSTORE PUSH1 0x22 PUSH1 0x4 MSTORE PUSH1 0x24 PUSH1 0x0 REVERT JUMPDEST SWAP2 PUSH1 0x7F AND SWAP2 PUSH2 0xC68 JUMP JUMPDEST SWAP1 PUSH1 0x1F DUP1 NOT SWAP2 ADD AND DUP2 ADD SWAP1 DUP2 LT PUSH8 0xFFFFFFFFFFFFFFFF DUP3 GT OR PUSH2 0xCB5 JUMPI PUSH1 0x40 MSTORE JUMP JUMPDEST PUSH4 0x4E487B71 PUSH1 0xE0 SHL PUSH1 0x0 MSTORE PUSH1 0x41 PUSH1 0x4 MSTORE PUSH1 0x24 PUSH1 0x0 REVERT JUMPDEST SWAP2 SWAP1 DUP3 MLOAD SWAP3 DUP4 DUP3 MSTORE PUSH1 0x0 JUMPDEST DUP5 DUP2 LT PUSH2 0xCF7 JUMPI POP POP DUP3 PUSH1 0x0 PUSH1 0x20 DUP1 SWAP5 SWAP6 DUP5 ADD ADD MSTORE PUSH1 0x1F DUP1 NOT SWAP2 ADD AND ADD ADD SWAP1 JUMP JUMPDEST PUSH1 0x20 DUP2 DUP4 ADD DUP2 ADD MLOAD DUP5 DUP4 ADD DUP3 ADD MSTORE ADD PUSH2 0xCD6 JUMP JUMPDEST PUSH1 0x4 CALLDATALOAD SWAP1 PUSH1 0x1 PUSH1 0x1 PUSH1 0xA0 SHL SUB DUP3 AND DUP3 SUB PUSH2 0x391 JUMPI JUMP JUMPDEST PUSH1 0x0 SLOAD PUSH1 0x1 PUSH1 0x1 PUSH1 0xA0 SHL SUB AND CALLER SUB PUSH2 0xD35 JUMPI JUMP JUMPDEST PUSH1 0x64 PUSH1 0x40 MLOAD PUSH3 0x461BCD PUSH1 0xE5 SHL DUP2 MSTORE PUSH1 0x20 PUSH1 0x4 DUP3 ADD MSTORE PUSH1 0x20 PUSH1 0x24 DUP3 ADD MSTORE PUSH32 0x4F776E61626C653A2063616C6C6572206973206E6F7420746865206F776E6572 PUSH1 0x44 DUP3 ADD MSTORE REVERT JUMPDEST CALLDATALOAD PUSH2 0xFFFF DUP2 AND DUP2 SUB PUSH2 0x391 JUMPI SWAP1 JUMP JUMPDEST SWAP1 CALLDATALOAD SWAP1 PUSH1 0x1E NOT DUP2 CALLDATASIZE SUB ADD DUP3 SLT ISZERO PUSH2 0x391 JUMPI ADD DUP1 CALLDATALOAD SWAP1 PUSH8 0xFFFFFFFFFFFFFFFF DUP3 GT PUSH2 0x391 JUMPI PUSH1 0x20 ADD SWAP2 DUP2 CALLDATASIZE SUB DUP4 SGT PUSH2 0x391 JUMPI JUMP JUMPDEST SWAP1 DUP1 PUSH1 0x20 SWAP4 SWAP3 DUP2 DUP5 MSTORE DUP5 DUP5 ADD CALLDATACOPY PUSH1 0x0 DUP3 DUP3 ADD DUP5 ADD MSTORE PUSH1 0x1F ADD PUSH1 0x1F NOT AND ADD ADD SWAP1 JUMP JUMPDEST SWAP1 PUSH2 0xDF6 SWAP1 PUSH1 0x40 SWAP4 SWAP7 SWAP6 SWAP5 SWAP7 PUSH1 0x60 DUP5 MSTORE PUSH1 0x60 DUP5 ADD SWAP2 PUSH2 0xDBB JUMP JUMPDEST SWAP5 PUSH1 0x20 DUP3 ADD MSTORE ADD MSTORE JUMP INVALID LOG2 PUSH5 0x6970667358 0x22 SLT KECCAK256 PUSH8 0x45CA71BB46D43C84 ADD 0xDD PUSH27 0xEB95918B8ED41331C6DBDF1DAE930C77EBE21E5964736F6C634300 ADDMOD SGT STOP CALLER "},"gasEstimates":{"creation":{"codeDepositCost":"727600","executionCost":"infinite","totalCost":"infinite"},"external":{"estimateFees(uint16,bytes,uint256,bytes)":"infinite","lzEndpoint()":"infinite","minDstGasLookup(uint16)":"2385","owner()":"2419","priceConsumer()":"infinite","renounceOwnership()":"28153","rescueTokens(address,address,uint256)":"infinite","sendTokens((uint16,bytes,uint256,address,address,bytes,bytes))":"infinite","setMinDstGas(uint16,uint256)":"24695","setTrustedRemote(uint16,bytes)":"infinite","transferOwnership(address)":"28400","trustedRemoteLookup(uint16)":"infinite"}},"methodIdentifiers":{"estimateFees(uint16,bytes,uint256,bytes)":"39a52ef7","lzEndpoint()":"b353aaa7","minDstGasLookup(uint16)":"15b86fab","owner()":"8da5cb5b","priceConsumer()":"461a758c","renounceOwnership()":"715018a6","rescueTokens(address,address,uint256)":"cea9d26f","sendTokens((uint16,bytes,uint256,address,address,bytes,bytes))":"709890d5","setMinDstGas(uint16,uint256)":"a02c0b98","setTrustedRemote(uint16,bytes)":"eb8d72b7","transferOwnership(address)":"f2fde38b","trustedRemoteLookup(uint16)":"7533d788"}},"storageLayout":{"storage":[{"astId":7,"contract":"src/contracts/BridgeContract.sol:BridgeContract","label":"_owner","offset":0,"slot":"0","type":"t_address"},{"astId":123,"contract":"src/contracts/BridgeContract.sol:BridgeContract","label":"_status","offset":0,"slot":"1","type":"t_uint256"},{"astId":306,"contract":"src/contracts/BridgeContract.sol:BridgeContract","label":"trustedRemoteLookup","offset":0,"slot":"2","type":"t_mapping(t_uint16,t_bytes_storage)"},{"astId":310,"contract":"src/contracts/BridgeContract.sol:BridgeContract","label":"minDstGasLookup","offset":0,"slot":"3","type":"t_mapping(t_uint16,t_uint256)"}],"types":{"t_address":{"encoding":"inplace","label":"address","numberOfBytes":"20"},"t_bytes_storage":{"encoding":"bytes","label":"bytes","numberOfBytes":"32"},"t_mapping(t_uint16,t_bytes_storage)":{"encoding":"mapping","key":"t_uint16","label":"mapping(uint16 => bytes)","numberOfBytes":"32","value":"t_bytes_storage"},"t_mapping(t_uint16,t_uint256)":{"encoding":"mapping","key":"t_uint16","label":"mapping(uint16 => uint256)","numberOfBytes":"32","value":"t_uint256"},"t_uint16":{"encoding":"inplace","label":"uint16","numberOfBytes":"2"},"t_uint256":{"encoding":"inplace","label":"uint256","numberOfBytes":"32"}}},"userdoc":{"kind":"user","methods":{},"version":1}}}}