{"src/contracts/PriceConsumer.sol":{"PriceConsumer":{"abi":[{"inputs":[{"internalType":"address","name":"oracleAddress","type":"address"}],"stateMutability":"nonpayable","type":"constructor"},{"anonymous":false,"inputs":[{"indexed":true,"internalType":"address","name":"previousOwner","type":"address"},{"indexed":true,"internalType":"address","name":"newOwner","type":"address"}],"name":"OwnershipTransferred","type":"event"},{"anonymous":false,"inputs":[{"indexed":false,"internalType":"uint256","name":"pair","type":"uint256"},{"indexed":false,"internalType":"uint256","name":"price","type":"uint256"},{"indexed":false,"internalType":"uint256","name":"timestamp","type":"uint256"},{"indexed":false,"internalType":"uint256","name":"round","type":"uint256"}],"name":"PriceReceived","type":"event"},{"inputs":[{"internalType":"bytes","name":"_bytesProof","type":"bytes"},{"internalType":"uint256","name":"pair","type":"uint256"}],"name":"getPriceData","outputs":[{"internalType":"uint256","name":"price","type":"uint256"},{"internalType":"uint256","name":"decimals","type":"uint256"}],"stateMutability":"nonpayable","type":"function"},{"inputs":[{"internalType":"bytes","name":"_bytesProof","type":"bytes"},{"internalType":"uint256","name":"pair","type":"uint256"}],"name":"getPriceDataWithRound","outputs":[{"internalType":"uint256","name":"price","type":"uint256"},{"internalType":"uint256","name":"timestamp","type":"uint256"},{"internalType":"uint256","name":"round","type":"uint256"}],"stateMutability":"nonpayable","type":"function"},{"inputs":[],"name":"oracle","outputs":[{"internalType":"contract ISupraOraclePull","name":"","type":"address"}],"stateMutability":"view","type":"function"},{"inputs":[],"name":"owner","outputs":[{"internalType":"address","name":"","type":"address"}],"stateMutability":"view","type":"function"},{"inputs":[],"name":"renounceOwnership","outputs":[],"stateMutability":"nonpayable","type":"function"},{"inputs":[{"internalType":"address","name":"newOwner","type":"address"}],"name":"transferOwnership","outputs":[],"stateMutability":"nonpayable","type":"function"},{"inputs":[{"internalType":"address","name":"newOracleAddress","type":"address"}],"name":"updateOracleAddress","outputs":[],"stateMutability":"nonpayable","type":"function"}],"devdoc":{"kind":"dev","methods":{"owner()":{"details":"Returns the address of the current owner."},"renounceOwnership()":{"details":"Leaves the contract without owner. It will not be possible to call `onlyOwner` functions. Can only be called by the current owner. NOTE: Renouncing ownership will leave the contract without an owner, thereby disabling any functionality that is only available to the owner."},"transferOwnership(address)":{"details":"Transfers ownership of the contract to a new account (`newOwner`). Can only be called by the current owner."}},"version":1},"evm":{"bytecode":{"linkReferences":{},"object":"6080346100a757601f6108ec38819003918201601f19168301916001600160401b038311848410176100ac578084926020946040528339810103126100a757516001600160a01b0390818116908190036100a75760005460018060a01b0319903382821617600055604051933391167f8be0079c531659141344cd1fd0a4f28419497f9722a3daafe3b4186f6b6457e0600080a3600154161760015561082990816100c38239f35b600080fd5b634e487b7160e01b600052604160045260246000fdfe604060808152600436101561001357600080fd5b600090813560e01c908163715018a61461022a5781637dc0d1d0146102015781638da5cb5b146101d95781639807d25d146101b4578163a46d47ce14610186578163f2fde38b146100be575063f7023bb61461006e57600080fd5b346100bb5760203660031901126100bb576004356001600160a01b038116908190036100b75761009c6102d7565b6bffffffffffffffffffffffff60a01b600154161760015580f35b5080fd5b80fd5b9050346100b75760203660031901126100b7576001600160a01b036004358181169290839003610182576100f06102d7565b8215610130575082546001600160a01b0319811683178455167f8be0079c531659141344cd1fd0a4f28419497f9722a3daafe3b4186f6b6457e08380a380f35b5162461bcd60e51b815260206004820152602660248201527f4f776e61626c653a206e6577206f776e657220697320746865207a65726f206160448201526564647265737360d01b6064820152608490fd5b8380fd5b9050346100b7576060906101a261019c36610284565b916105f4565b91929081519384526020840152820152f35b82346100bb57506101cd6101c736610284565b91610445565b82519182526020820152f35b9050346100b757816003193601126100b757905490516001600160a01b039091168152602090f35b9050346100b757816003193601126100b75760015490516001600160a01b039091168152602090f35b82346100bb57806003193601126100bb576102436102d7565b80546001600160a01b03198116825581906001600160a01b03167f8be0079c531659141344cd1fd0a4f28419497f9722a3daafe3b4186f6b6457e08280a380f35b9060406003198301126102d25760043567ffffffffffffffff928382116102d257806023830112156102d25781600401359384116102d257602484830101116102d257602401919060243590565b600080fd5b6000546001600160a01b031633036102eb57565b606460405162461bcd60e51b815260206004820152602060248201527f4f776e61626c653a2063616c6c6572206973206e6f7420746865206f776e65726044820152fd5b90601f8019910116810190811067ffffffffffffffff82111761035157604052565b634e487b7160e01b600052604160045260246000fd5b9080601f830112156102d25781519067ffffffffffffffff8211610351578160051b6040519360209361039c8584018761032f565b855283808601928201019283116102d2578301905b8282106103bf575050505090565b815181529083019083016103b1565b90918060409360208452816020850152848401376000828201840152601f01601f1916010190565b60001981146104055760010190565b634e487b7160e01b600052601160045260246000fd5b805182101561042f5760209160051b010190565b634e487b7160e01b600052603260045260246000fd5b926104799260008060019460018060a01b03865416604098838a51809a81958294632ce81dbd60e21b8452600484016103ce565b03925af19485156105e857819561051e575b50835b6104c8575b855162461bcd60e51b815260206004820152600e60248201526d14185a5c881b9bdd08199bdd5b9960921b6044820152606490fd5b84518051821015610518576104de82849261041b565b51146104f3576104ed906103f6565b8361048e565b9193949050610514925061050b82602087015161041b565b5194015161041b565b5190565b50610493565b9094503d8086833e610530818361032f565b81016020828203126105e457815167ffffffffffffffff928382116105c45701916060838303126105e05787519260608401848110838211176105cc57895280518281116105c85783610584918301610367565b845260208101518281116105c8578361059e918301610367565b6020850152888101519182116105c4576105b9929101610367565b86820152933861048b565b8780fd5b8880fd5b634e487b7160e01b89526041600452602489fd5b8680fd5b8580fd5b508551903d90823e3d90fd5b926106289260008060019460018060a01b03865416604098838a51809a81958294633dcd979360e01b8452600484016103ce565b03925af19485156105e8578195610713575b50835b61067657855162461bcd60e51b815260206004820152600e60248201526d14185a5c881b9bdd08199bdd5b9960921b6044820152606490fd5b845180518210156105185761068c82849261041b565b51146106a15761069b906103f6565b8361063d565b936106fa959293507f5396f73806124013c800248a3abdf9e9fffe444d69b665b4edf9c9584c05ffa0916020956106db818885015161041b565b5194856106eb838387015161041b565b51998a9360808097015161041b565b51988251948552840152820152856060820152a1929190565b9094503d8086833e610725818361032f565b81016020828203126105e457815167ffffffffffffffff928382116105c457019160a0838303126105e05787519260a08401848110838211176105cc57895280518281116105c85783610779918301610367565b845260208101518281116105c85783610793918301610367565b6020850152888101518281116105c857836107af918301610367565b8985015260608101518281116105c857836107cb918301610367565b606085015260808101519182116105c4576107e7929101610367565b6080820152933861063a56fea2646970667358221220988c73bce0984a386f70dba032153d7430f44e7704dd706bb739cd1de17552ca64736f6c63430008130033","opcodes":"PUSH1 0x80 CALLVALUE PUSH2 0xA7 JUMPI PUSH1 0x1F PUSH2 0x8EC CODESIZE DUP2 SWAP1 SUB SWAP2 DUP3 ADD PUSH1 0x1F NOT AND DUP4 ADD SWAP2 PUSH1 0x1 PUSH1 0x1 PUSH1 0x40 SHL SUB DUP4 GT DUP5 DUP5 LT OR PUSH2 0xAC JUMPI DUP1 DUP5 SWAP3 PUSH1 0x20 SWAP5 PUSH1 0x40 MSTORE DUP4 CODECOPY DUP2 ADD SUB SLT PUSH2 0xA7 JUMPI MLOAD PUSH1 0x1 PUSH1 0x1 PUSH1 0xA0 SHL SUB SWAP1 DUP2 DUP2 AND SWAP1 DUP2 SWAP1 SUB PUSH2 0xA7 JUMPI PUSH1 0x0 SLOAD PUSH1 0x1 DUP1 PUSH1 0xA0 SHL SUB NOT SWAP1 CALLER DUP3 DUP3 AND OR PUSH1 0x0 SSTORE PUSH1 0x40 MLOAD SWAP4 CALLER SWAP2 AND PUSH32 0x8BE0079C531659141344CD1FD0A4F28419497F9722A3DAAFE3B4186F6B6457E0 PUSH1 0x0 DUP1 LOG3 PUSH1 0x1 SLOAD AND OR PUSH1 0x1 SSTORE PUSH2 0x829 SWAP1 DUP2 PUSH2 0xC3 DUP3 CODECOPY RETURN JUMPDEST PUSH1 0x0 DUP1 REVERT JUMPDEST PUSH4 0x4E487B71 PUSH1 0xE0 SHL PUSH1 0x0 MSTORE PUSH1 0x41 PUSH1 0x4 MSTORE PUSH1 0x24 PUSH1 0x0 REVERT INVALID PUSH1 0x40 PUSH1 0x80 DUP2 MSTORE PUSH1 0x4 CALLDATASIZE LT ISZERO PUSH2 0x13 JUMPI PUSH1 0x0 DUP1 REVERT JUMPDEST PUSH1 0x0 SWAP1 DUP2 CALLDATALOAD PUSH1 0xE0 SHR SWAP1 DUP2 PUSH4 0x715018A6 EQ PUSH2 0x22A JUMPI DUP2 PUSH4 0x7DC0D1D0 EQ PUSH2 0x201 JUMPI DUP2 PUSH4 0x8DA5CB5B EQ PUSH2 0x1D9 JUMPI DUP2 PUSH4 0x9807D25D EQ PUSH2 0x1B4 JUMPI DUP2 PUSH4 0xA46D47CE EQ PUSH2 0x186 JUMPI DUP2 PUSH4 0xF2FDE38B EQ PUSH2 0xBE JUMPI POP PUSH4 0xF7023BB6 EQ PUSH2 0x6E JUMPI PUSH1 0x0 DUP1 REVERT JUMPDEST CALLVALUE PUSH2 0xBB JUMPI PUSH1 0x20 CALLDATASIZE PUSH1 0x3 NOT ADD SLT PUSH2 0xBB JUMPI PUSH1 0x4 CALLDATALOAD PUSH1 0x1 PUSH1 0x1 PUSH1 0xA0 SHL SUB DUP2 AND SWAP1 DUP2 SWAP1 SUB PUSH2 0xB7 JUMPI PUSH2 0x9C PUSH2 0x2D7 JUMP JUMPDEST PUSH12 0xFFFFFFFFFFFFFFFFFFFFFFFF PUSH1 0xA0 SHL PUSH1 0x1 SLOAD AND OR PUSH1 0x1 SSTORE DUP1 RETURN JUMPDEST POP DUP1 REVERT JUMPDEST DUP1 REVERT JUMPDEST SWAP1 POP CALLVALUE PUSH2 0xB7 JUMPI PUSH1 0x20 CALLDATASIZE PUSH1 0x3 NOT ADD SLT PUSH2 0xB7 JUMPI PUSH1 0x1 PUSH1 0x1 PUSH1 0xA0 SHL SUB PUSH1 0x4 CALLDATALOAD DUP2 DUP2 AND SWAP3 SWAP1 DUP4 SWAP1 SUB PUSH2 0x182 JUMPI PUSH2 0xF0 PUSH2 0x2D7 JUMP JUMPDEST DUP3 ISZERO PUSH2 0x130 JUMPI POP DUP3 SLOAD PUSH1 0x1 PUSH1 0x1 PUSH1 0xA0 SHL SUB NOT DUP2 AND DUP4 OR DUP5 SSTORE AND PUSH32 0x8BE0079C531659141344CD1FD0A4F28419497F9722A3DAAFE3B4186F6B6457E0 DUP4 DUP1 LOG3 DUP1 RETURN JUMPDEST MLOAD PUSH3 0x461BCD PUSH1 0xE5 SHL DUP2 MSTORE PUSH1 0x20 PUSH1 0x4 DUP3 ADD MSTORE PUSH1 0x26 PUSH1 0x24 DUP3 ADD MSTORE PUSH32 0x4F776E61626C653A206E6577206F776E657220697320746865207A65726F2061 PUSH1 0x44 DUP3 ADD MSTORE PUSH6 0x646472657373 PUSH1 0xD0 SHL PUSH1 0x64 DUP3 ADD MSTORE PUSH1 0x84 SWAP1 REVERT JUMPDEST DUP4 DUP1 REVERT JUMPDEST SWAP1 POP CALLVALUE PUSH2 0xB7 JUMPI PUSH1 0x60 SWAP1 PUSH2 0x1A2 PUSH2 0x19C CALLDATASIZE PUSH2 0x284 JUMP JUMPDEST SWAP2 PUSH2 0x5F4 JUMP JUMPDEST SWAP2 SWAP3 SWAP1 DUP2 MLOAD SWAP4 DUP5 MSTORE PUSH1 0x20 DUP5 ADD MSTORE DUP3 ADD MSTORE RETURN JUMPDEST DUP3 CALLVALUE PUSH2 0xBB JUMPI POP PUSH2 0x1CD PUSH2 0x1C7 CALLDATASIZE PUSH2 0x284 JUMP JUMPDEST SWAP2 PUSH2 0x445 JUMP JUMPDEST DUP3 MLOAD SWAP2 DUP3 MSTORE PUSH1 0x20 DUP3 ADD MSTORE RETURN JUMPDEST SWAP1 POP CALLVALUE PUSH2 0xB7 JUMPI DUP2 PUSH1 0x3 NOT CALLDATASIZE ADD SLT PUSH2 0xB7 JUMPI SWAP1 SLOAD SWAP1 MLOAD PUSH1 0x1 PUSH1 0x1 PUSH1 0xA0 SHL SUB SWAP1 SWAP2 AND DUP2 MSTORE PUSH1 0x20 SWAP1 RETURN JUMPDEST SWAP1 POP CALLVALUE PUSH2 0xB7 JUMPI DUP2 PUSH1 0x3 NOT CALLDATASIZE ADD SLT PUSH2 0xB7 JUMPI PUSH1 0x1 SLOAD SWAP1 MLOAD PUSH1 0x1 PUSH1 0x1 PUSH1 0xA0 SHL SUB SWAP1 SWAP2 AND DUP2 MSTORE PUSH1 0x20 SWAP1 RETURN JUMPDEST DUP3 CALLVALUE PUSH2 0xBB JUMPI DUP1 PUSH1 0x3 NOT CALLDATASIZE ADD SLT PUSH2 0xBB JUMPI PUSH2 0x243 PUSH2 0x2D7 JUMP JUMPDEST DUP1 SLOAD PUSH1 0x1 PUSH1 0x1 PUSH1 0xA0 SHL SUB NOT DUP2 AND DUP3 SSTORE DUP2 SWAP1 PUSH1 0x1 PUSH1 0x1 PUSH1 0xA0 SHL SUB AND PUSH32 0x8BE0079C531659141344CD1FD0A4F28419497F9722A3DAAFE3B4186F6B6457E0 DUP3 DUP1 LOG3 DUP1 RETURN JUMPDEST SWAP1 PUSH1 0x40 PUSH1 0x3 NOT DUP4 ADD SLT PUSH2 0x2D2 JUMPI PUSH1 0x4 CALLDATALOAD PUSH8 0xFFFFFFFFFFFFFFFF SWAP3 DUP4 DUP3 GT PUSH2 0x2D2 JUMPI DUP1 PUSH1 0x23 DUP4 ADD SLT ISZERO PUSH2 0x2D2 JUMPI DUP2 PUSH1 0x4 ADD CALLDATALOAD SWAP4 DUP5 GT PUSH2 0x2D2 JUMPI PUSH1 0x24 DUP5 DUP4 ADD ADD GT PUSH2 0x2D2 JUMPI PUSH1 0x24 ADD SWAP2 SWAP1 PUSH1 0x24 CALLDATALOAD SWAP1 JUMP JUMPDEST PUSH1 0x0 DUP1 REVERT JUMPDEST PUSH1 0x0 SLOAD PUSH1 0x1 PUSH1 0x1 PUSH1 0xA0 SHL SUB AND CALLER SUB PUSH2 0x2EB JUMPI JUMP JUMPDEST PUSH1 0x64 PUSH1 0x40 MLOAD PUSH3 0x461BCD PUSH1 0xE5 SHL DUP2 MSTORE PUSH1 0x20 PUSH1 0x4 DUP3 ADD MSTORE PUSH1 0x20 PUSH1 0x24 DUP3 ADD MSTORE PUSH32 0x4F776E61626C653A2063616C6C6572206973206E6F7420746865206F776E6572 PUSH1 0x44 DUP3 ADD MSTORE REVERT JUMPDEST SWAP1 PUSH1 0x1F DUP1 NOT SWAP2 ADD AND DUP2 ADD SWAP1 DUP2 LT PUSH8 0xFFFFFFFFFFFFFFFF DUP3 GT OR PUSH2 0x351 JUMPI PUSH1 0x40 MSTORE JUMP JUMPDEST PUSH4 0x4E487B71 PUSH1 0xE0 SHL PUSH1 0x0 MSTORE PUSH1 0x41 PUSH1 0x4 MSTORE PUSH1 0x24 PUSH1 0x0 REVERT JUMPDEST SWAP1 DUP1 PUSH1 0x1F DUP4 ADD SLT ISZERO PUSH2 0x2D2 JUMPI DUP2 MLOAD SWAP1 PUSH8 0xFFFFFFFFFFFFFFFF DUP3 GT PUSH2 0x351 JUMPI DUP2 PUSH1 0x5 SHL PUSH1 0x40 MLOAD SWAP4 PUSH1 0x20 SWAP4 PUSH2 0x39C DUP6 DUP5 ADD DUP8 PUSH2 0x32F JUMP JUMPDEST DUP6 MSTORE DUP4 DUP1 DUP7 ADD SWAP3 DUP3 ADD ADD SWAP3 DUP4 GT PUSH2 0x2D2 JUMPI DUP4 ADD SWAP1 JUMPDEST DUP3 DUP3 LT PUSH2 0x3BF JUMPI POP POP POP POP SWAP1 JUMP JUMPDEST DUP2 MLOAD DUP2 MSTORE SWAP1 DUP4 ADD SWAP1 DUP4 ADD PUSH2 0x3B1 JUMP JUMPDEST SWAP1 SWAP2 DUP1 PUSH1 0x40 SWAP4 PUSH1 0x20 DUP5 MSTORE DUP2 PUSH1 0x20 DUP6 ADD MSTORE DUP5 DUP5 ADD CALLDATACOPY PUSH1 0x0 DUP3 DUP3 ADD DUP5 ADD MSTORE PUSH1 0x1F ADD PUSH1 0x1F NOT AND ADD ADD SWAP1 JUMP JUMPDEST PUSH1 0x0 NOT DUP2 EQ PUSH2 0x405 JUMPI PUSH1 0x1 ADD SWAP1 JUMP JUMPDEST PUSH4 0x4E487B71 PUSH1 0xE0 SHL PUSH1 0x0 MSTORE PUSH1 0x11 PUSH1 0x4 MSTORE PUSH1 0x24 PUSH1 0x0 REVERT JUMPDEST DUP1 MLOAD DUP3 LT ISZERO PUSH2 0x42F JUMPI PUSH1 0x20 SWAP2 PUSH1 0x5 SHL ADD ADD SWAP1 JUMP JUMPDEST PUSH4 0x4E487B71 PUSH1 0xE0 SHL PUSH1 0x0 MSTORE PUSH1 0x32 PUSH1 0x4 MSTORE PUSH1 0x24 PUSH1 0x0 REVERT JUMPDEST SWAP3 PUSH2 0x479 SWAP3 PUSH1 0x0 DUP1 PUSH1 0x1 SWAP5 PUSH1 0x1 DUP1 PUSH1 0xA0 SHL SUB DUP7 SLOAD AND PUSH1 0x40 SWAP9 DUP4 DUP11 MLOAD DUP1 SWAP11 DUP2 SWAP6 DUP3 SWAP5 PUSH4 0x2CE81DBD PUSH1 0xE2 SHL DUP5 MSTORE PUSH1 0x4 DUP5 ADD PUSH2 0x3CE JUMP JUMPDEST SUB SWAP3 GAS CALL SWAP5 DUP6 ISZERO PUSH2 0x5E8 JUMPI DUP2 SWAP6 PUSH2 0x51E JUMPI JUMPDEST POP DUP4 JUMPDEST PUSH2 0x4C8 JUMPI JUMPDEST DUP6 MLOAD PUSH3 0x461BCD PUSH1 0xE5 SHL DUP2 MSTORE PUSH1 0x20 PUSH1 0x4 DUP3 ADD MSTORE PUSH1 0xE PUSH1 0x24 DUP3 ADD MSTORE PUSH14 0x14185A5C881B9BDD08199BDD5B99 PUSH1 0x92 SHL PUSH1 0x44 DUP3 ADD MSTORE PUSH1 0x64 SWAP1 REVERT JUMPDEST DUP5 MLOAD DUP1 MLOAD DUP3 LT ISZERO PUSH2 0x518 JUMPI PUSH2 0x4DE DUP3 DUP5 SWAP3 PUSH2 0x41B JUMP JUMPDEST MLOAD EQ PUSH2 0x4F3 JUMPI PUSH2 0x4ED SWAP1 PUSH2 0x3F6 JUMP JUMPDEST DUP4 PUSH2 0x48E JUMP JUMPDEST SWAP2 SWAP4 SWAP5 SWAP1 POP PUSH2 0x514 SWAP3 POP PUSH2 0x50B DUP3 PUSH1 0x20 DUP8 ADD MLOAD PUSH2 0x41B JUMP JUMPDEST MLOAD SWAP5 ADD MLOAD PUSH2 0x41B JUMP JUMPDEST MLOAD SWAP1 JUMP JUMPDEST POP PUSH2 0x493 JUMP JUMPDEST SWAP1 SWAP5 POP RETURNDATASIZE DUP1 DUP7 DUP4 RETURNDATACOPY PUSH2 0x530 DUP2 DUP4 PUSH2 0x32F JUMP JUMPDEST DUP2 ADD PUSH1 0x20 DUP3 DUP3 SUB SLT PUSH2 0x5E4 JUMPI DUP2 MLOAD PUSH8 0xFFFFFFFFFFFFFFFF SWAP3 DUP4 DUP3 GT PUSH2 0x5C4 JUMPI ADD SWAP2 PUSH1 0x60 DUP4 DUP4 SUB SLT PUSH2 0x5E0 JUMPI DUP8 MLOAD SWAP3 PUSH1 0x60 DUP5 ADD DUP5 DUP2 LT DUP4 DUP3 GT OR PUSH2 0x5CC JUMPI DUP10 MSTORE DUP1 MLOAD DUP3 DUP2 GT PUSH2 0x5C8 JUMPI DUP4 PUSH2 0x584 SWAP2 DUP4 ADD PUSH2 0x367 JUMP JUMPDEST DUP5 MSTORE PUSH1 0x20 DUP2 ADD MLOAD DUP3 DUP2 GT PUSH2 0x5C8 JUMPI DUP4 PUSH2 0x59E SWAP2 DUP4 ADD PUSH2 0x367 JUMP JUMPDEST PUSH1 0x20 DUP6 ADD MSTORE DUP9 DUP2 ADD MLOAD SWAP2 DUP3 GT PUSH2 0x5C4 JUMPI PUSH2 0x5B9 SWAP3 SWAP2 ADD PUSH2 0x367 JUMP JUMPDEST DUP7 DUP3 ADD MSTORE SWAP4 CODESIZE PUSH2 0x48B JUMP JUMPDEST DUP8 DUP1 REVERT JUMPDEST DUP9 DUP1 REVERT JUMPDEST PUSH4 0x4E487B71 PUSH1 0xE0 SHL DUP10 MSTORE PUSH1 0x41 PUSH1 0x4 MSTORE PUSH1 0x24 DUP10 REVERT JUMPDEST DUP7 DUP1 REVERT JUMPDEST DUP6 DUP1 REVERT JUMPDEST POP DUP6 MLOAD SWAP1 RETURNDATASIZE SWAP1 DUP3 RETURNDATACOPY RETURNDATASIZE SWAP1 REVERT JUMPDEST SWAP3 PUSH2 0x628 SWAP3 PUSH1 0x0 DUP1 PUSH1 0x1 SWAP5 PUSH1 0x1 DUP1 PUSH1 0xA0 SHL SUB DUP7 SLOAD AND PUSH1 0x40 SWAP9 DUP4 DUP11 MLOAD DUP1 SWAP11 DUP2 SWAP6 DUP3 SWAP5 PUSH4 0x3DCD9793 PUSH1 0xE0 SHL DUP5 MSTORE PUSH1 0x4 DUP5 ADD PUSH2 0x3CE JUMP JUMPDEST SUB SWAP3 GAS CALL SWAP5 DUP6 ISZERO PUSH2 0x5E8 JUMPI DUP2 SWAP6 PUSH2 0x713 JUMPI JUMPDEST POP DUP4 JUMPDEST PUSH2 0x676 JUMPI DUP6 MLOAD PUSH3 0x461BCD PUSH1 0xE5 SHL DUP2 MSTORE PUSH1 0x20 PUSH1 0x4 DUP3 ADD MSTORE PUSH1 0xE PUSH1 0x24 DUP3 ADD MSTORE PUSH14 0x14185A5C881B9BDD08199BDD5B99 PUSH1 0x92 SHL PUSH1 0x44 DUP3 ADD MSTORE PUSH1 0x64 SWAP1 REVERT JUMPDEST DUP5 MLOAD DUP1 MLOAD DUP3 LT ISZERO PUSH2 0x518 JUMPI PUSH2 0x68C DUP3 DUP5 SWAP3 PUSH2 0x41B JUMP JUMPDEST MLOAD EQ PUSH2 0x6A1 JUMPI PUSH2 0x69B SWAP1 PUSH2 0x3F6 JUMP JUMPDEST DUP4 PUSH2 0x63D JUMP JUMPDEST SWAP4 PUSH2 0x6FA SWAP6 SWAP3 SWAP4 POP PUSH32 0x5396F73806124013C800248A3ABDF9E9FFFE444D69B665B4EDF9C9584C05FFA0 SWAP2 PUSH1 0x20 SWAP6 PUSH2 0x6DB DUP2 DUP9 DUP6 ADD MLOAD PUSH2 0x41B JUMP JUMPDEST MLOAD SWAP5 DUP6 PUSH2 0x6EB DUP4 DUP4 DUP8 ADD MLOAD PUSH2 0x41B JUMP JUMPDEST MLOAD SWAP10 DUP11 SWAP4 PUSH1 0x80 DUP1 SWAP8 ADD MLOAD PUSH2 0x41B JUMP JUMPDEST MLOAD SWAP9 DUP3 MLOAD SWAP5 DUP6 MSTORE DUP5 ADD MSTORE DUP3 ADD MSTORE DUP6 PUSH1 0x60 DUP3 ADD MSTORE LOG1 SWAP3 SWAP2 SWAP1 JUMP JUMPDEST SWAP1 SWAP5 POP RETURNDATASIZE DUP1 DUP7 DUP4 RETURNDATACOPY PUSH2 0x725 DUP2 DUP4 PUSH2 0x32F JUMP JUMPDEST DUP2 ADD PUSH1 0x20 DUP3 DUP3 SUB SLT PUSH2 0x5E4 JUMPI DUP2 MLOAD PUSH8 0xFFFFFFFFFFFFFFFF SWAP3 DUP4 DUP3 GT PUSH2 0x5C4 JUMPI ADD SWAP2 PUSH1 0xA0 DUP4 DUP4 SUB SLT PUSH2 0x5E0 JUMPI DUP8 MLOAD SWAP3 PUSH1 0xA0 DUP5 ADD DUP5 DUP2 LT DUP4 DUP3 GT OR PUSH2 0x5CC JUMPI DUP10 MSTORE DUP1 MLOAD DUP3 DUP2 GT PUSH2 0x5C8 JUMPI DUP4 PUSH2 0x779 SWAP2 DUP4 ADD PUSH2 0x367 JUMP JUMPDEST DUP5 MSTORE PUSH1 0x20 DUP2 ADD MLOAD DUP3 DUP2 GT PUSH2 0x5C8 JUMPI DUP4 PUSH2 0x793 SWAP2 DUP4 ADD PUSH2 0x367 JUMP JUMPDEST PUSH1 0x20 DUP6 ADD MSTORE DUP9 DUP2 ADD MLOAD DUP3 DUP2 GT PUSH2 0x5C8 JUMPI DUP4 PUSH2 0x7AF SWAP2 DUP4 ADD PUSH2 0x367 JUMP JUMPDEST DUP10 DUP6 ADD MSTORE PUSH1 0x60 DUP2 ADD MLOAD DUP3 DUP2 GT PUSH2 0x5C8 JUMPI DUP4 PUSH2 0x7CB SWAP2 DUP4 ADD PUSH2 0x367 JUMP JUMPDEST PUSH1 0x60 DUP6 ADD MSTORE PUSH1 0x80 DUP2 ADD MLOAD SWAP2 DUP3 GT PUSH2 0x5C4 JUMPI PUSH2 0x7E7 SWAP3 SWAP2 ADD PUSH2 0x367 JUMP JUMPDEST PUSH1 0x80 DUP3 ADD MSTORE SWAP4 CODESIZE PUSH2 0x63A JUMP INVALID LOG2 PUSH5 0x6970667358 0x22 SLT KECCAK256 SWAP9 DUP13 PUSH20 0xBCE0984A386F70DBA032153D7430F44E7704DD70 PUSH12 0xB739CD1DE17552CA64736F6C PUSH4 0x43000813 STOP CALLER "},"gasEstimates":{"creation":{"codeDepositCost":"417800","executionCost":"infinite","totalCost":"infinite"},"external":{"getPriceData(bytes,uint256)":"infinite","getPriceDataWithRound(bytes,uint256)":"infinite","oracle()":"2313","owner()":"2335","renounceOwnership()":"28067","transferOwnership(address)":"28243","updateOracleAddress(address)":"26705"}},"methodIdentifiers":{"getPriceData(bytes,uint256)":"9807d25d","getPriceDataWithRound(bytes,uint256)":"a46d47ce","oracle()":"7dc0d1d0","owner()":"8da5cb5b","renounceOwnership()":"715018a6","transferOwnership(address)":"f2fde38b","updateOracleAddress(address)":"f7023bb6"}},"storageLayout":{"storage":[{"astId":7,"contract":"src/contracts/PriceConsumer.sol:PriceConsumer","label":"_owner","offset":0,"slot":"0","type":"t_address"},{"astId":549,"contract":"src/contracts/PriceConsumer.sol:PriceConsumer","label":"oracle","offset":0,"slot":"1","type":"t_contract(ISupraOraclePull)842"}],"types":{"t_address":{"encoding":"inplace","label":"address","numberOfBytes":"20"},"t_contract(ISupraOraclePull)842":{"encoding":"inplace","label":"contract ISupraOraclePull","numberOfBytes":"20"}}},"userdoc":{"kind":"user","methods":{},"version":1}}}}