{
  "_format": "hh-sol-artifact-1",
  "contractName": "PriceConsumer",
  "sourceName": "src/contracts/PriceConsumer.sol",
  "abi": [
    {
      "inputs": [
        {
          "internalType": "address",
          "name": "oracleAddress",
          "type": "address"
        }
      ],
      "stateMutability": "nonpayable",
      "type": "constructor"
    },
    {
      "anonymous": false,
      "inputs": [
        {
          "indexed": true,
          "internalType": "address",
          "name": "previousOwner",
          "type": "address"
        },
        {
          "indexed": true,
          "internalType": "address",
          "name": "newOwner",
          "type": "address"
        }
      ],
      "name": "OwnershipTransferred",
      "type": "event"
    },
    {
      "anonymous": false,
      "inputs": [
        {
          "indexed": false,
          "internalType": "uint256",
          "name": "pair",
          "type": "uint256"
        },
        {
          "indexed": false,
          "internalType": "uint256",
          "name": "price",
          "type": "uint256"
        },
        {
          "indexed": false,
          "internalType": "uint256",
          "name": "timestamp",
          "type": "uint256"
        },
        {
          "indexed": false,
          "internalType": "uint256",
          "name": "round",
          "type": "uint256"
        }
      ],
      "name": "PriceReceived",
      "type": "event"
    },
    {
      "inputs": [
        {
          "internalType": "bytes",
          "name": "_bytesProof",
          "type": "bytes"
        },
        {
          "internalType": "uint256",
          "name": "pair",
          "type": "uint256"
        }
      ],
      "name": "getPriceData",
      "outputs": [
        {
          "internalType": "uint256",
          "name": "price",
          "type": "uint256"
        },
        {
          "internalType": "uint256",
          "name": "decimals",
          "type": "uint256"
        }
      ],
      "stateMutability": "nonpayable",
      "type": "function"
    },
    {
      "inputs": [
        {
          "internalType": "bytes",
          "name": "_bytesProof",
          "type": "bytes"
        },
        {
          "internalType": "uint256",
          "name": "pair",
          "type": "uint256"
        }
      ],
      "name": "getPriceDataWithRound",
      "outputs": [
        {
          "internalType": "uint256",
          "name": "price",
          "type": "uint256"
        },
        {
          "internalType": "uint256",
          "name": "timestamp",
          "type": "uint256"
        },
        {
          "internalType": "uint256",
          "name": "round",
          "type": "uint256"
        }
      ],
      "stateMutability": "nonpayable",
      "type": "function"
    },
    {
      "inputs": [],
      "name": "oracle",
      "outputs": [
        {
          "internalType": "contract ISupraOraclePull",
          "name": "",
          "type": "address"
        }
      ],
      "stateMutability": "view",
      "type": "function"
    },
    {
      "inputs": [],
      "name": "owner",
      "outputs": [
        {
          "internalType": "address",
          "name": "",
          "type": "address"
        }
      ],
      "stateMutability": "view",
      "type": "function"
    },
    {
      "inputs": [],
      "name": "renounceOwnership",
      "outputs": [],
      "stateMutability": "nonpayable",
      "type": "function"
    },
    {
      "inputs": [
        {
          "internalType": "address",
          "name": "newOwner",
          "type": "address"
        }
      ],
      "name": "transferOwnership",
      "outputs": [],
      "stateMutability": "nonpayable",
      "type": "function"
    },
    {
      "inputs": [
        {
          "internalType": "address",
          "name": "newOracleAddress",
          "type": "address"
        }
      ],
      "name": "updateOracleAddress",
      "outputs": [],
      "stateMutability": "nonpayable",
      "type": "function"
    }
  ],
  "bytecode": "0x6080346100a757601f6108ec38819003918201601f19168301916001600160401b038311848410176100ac578084926020946040528339810103126100a757516001600160a01b0390818116908190036100a75760005460018060a01b0319903382821617600055604051933391167f8be0079c531659141344cd1fd0a4f28419497f9722a3daafe3b4186f6b6457e0600080a3600154161760015561082990816100c38239f35b600080fd5b634e487b7160e01b600052604160045260246000fdfe604060808152600436101561001357600080fd5b600090813560e01c908163715018a61461022a5781637dc0d1d0146102015781638da5cb5b146101d95781639807d25d146101b4578163a46d47ce14610186578163f2fde38b146100be575063f7023bb61461006e57600080fd5b346100bb5760203660031901126100bb576004356001600160a01b038116908190036100b75761009c6102d7565b6bffffffffffffffffffffffff60a01b600154161760015580f35b5080fd5b80fd5b9050346100b75760203660031901126100b7576001600160a01b036004358181169290839003610182576100f06102d7565b8215610130575082546001600160a01b0319811683178455167f8be0079c531659141344cd1fd0a4f28419497f9722a3daafe3b4186f6b6457e08380a380f35b5162461bcd60e51b815260206004820152602660248201527f4f776e61626c653a206e6577206f776e657220697320746865207a65726f206160448201526564647265737360d01b6064820152608490fd5b8380fd5b9050346100b7576060906101a261019c36610284565b916105f4565b91929081519384526020840152820152f35b82346100bb57506101cd6101c736610284565b91610445565b82519182526020820152f35b9050346100b757816003193601126100b757905490516001600160a01b039091168152602090f35b9050346100b757816003193601126100b75760015490516001600160a01b039091168152602090f35b82346100bb57806003193601126100bb576102436102d7565b80546001600160a01b03198116825581906001600160a01b03167f8be0079c531659141344cd1fd0a4f28419497f9722a3daafe3b4186f6b6457e08280a380f35b9060406003198301126102d25760043567ffffffffffffffff928382116102d257806023830112156102d25781600401359384116102d257602484830101116102d257602401919060243590565b600080fd5b6000546001600160a01b031633036102eb57565b606460405162461bcd60e51b815260206004820152602060248201527f4f776e61626c653a2063616c6c6572206973206e6f7420746865206f776e65726044820152fd5b90601f8019910116810190811067ffffffffffffffff82111761035157604052565b634e487b7160e01b600052604160045260246000fd5b9080601f830112156102d25781519067ffffffffffffffff8211610351578160051b6040519360209361039c8584018761032f565b855283808601928201019283116102d2578301905b8282106103bf575050505090565b815181529083019083016103b1565b90918060409360208452816020850152848401376000828201840152601f01601f1916010190565b60001981146104055760010190565b634e487b7160e01b600052601160045260246000fd5b805182101561042f5760209160051b010190565b634e487b7160e01b600052603260045260246000fd5b926104799260008060019460018060a01b03865416604098838a51809a81958294632ce81dbd60e21b8452600484016103ce565b03925af19485156105e857819561051e575b50835b6104c8575b855162461bcd60e51b815260206004820152600e60248201526d14185a5c881b9bdd08199bdd5b9960921b6044820152606490fd5b84518051821015610518576104de82849261041b565b51146104f3576104ed906103f6565b8361048e565b9193949050610514925061050b82602087015161041b565b5194015161041b565b5190565b50610493565b9094503d8086833e610530818361032f565b81016020828203126105e457815167ffffffffffffffff928382116105c45701916060838303126105e05787519260608401848110838211176105cc57895280518281116105c85783610584918301610367565b845260208101518281116105c8578361059e918301610367565b6020850152888101519182116105c4576105b9929101610367565b86820152933861048b565b8780fd5b8880fd5b634e487b7160e01b89526041600452602489fd5b8680fd5b8580fd5b508551903d90823e3d90fd5b926106289260008060019460018060a01b03865416604098838a51809a81958294633dcd979360e01b8452600484016103ce565b03925af19485156105e8578195610713575b50835b61067657855162461bcd60e51b815260206004820152600e60248201526d14185a5c881b9bdd08199bdd5b9960921b6044820152606490fd5b845180518210156105185761068c82849261041b565b51146106a15761069b906103f6565b8361063d565b936106fa959293507f5396f73806124013c800248a3abdf9e9fffe444d69b665b4edf9c9584c05ffa0916020956106db818885015161041b565b5194856106eb838387015161041b565b51998a9360808097015161041b565b51988251948552840152820152856060820152a1929190565b9094503d8086833e610725818361032f565b81016020828203126105e457815167ffffffffffffffff928382116105c457019160a0838303126105e05787519260a08401848110838211176105cc57895280518281116105c85783610779918301610367565b845260208101518281116105c85783610793918301610367565b6020850152888101518281116105c857836107af918301610367565b8985015260608101518281116105c857836107cb918301610367565b606085015260808101519182116105c4576107e7929101610367565b6080820152933861063a56fea2646970667358221220988c73bce0984a386f70dba032153d7430f44e7704dd706bb739cd1de17552ca64736f6c63430008130033",
  "linkReferences": {},
  "deployedLinkReferences": {}
}