{
  "_format": "hh-sol-artifact-1",
  "contractName": "BridgeContract",
  "sourceName": "src/contracts/BridgeContract.sol",
  "abi": [
    {
      "inputs": [
        {
          "internalType": "address",
          "name": "_lzEndpoint",
          "type": "address"
        },
        {
          "internalType": "address",
          "name": "_priceConsumer",
          "type": "address"
        }
      ],
      "stateMutability": "nonpayable",
      "type": "constructor"
    },
    {
      "anonymous": false,
      "inputs": [
        {
          "indexed": true,
          "internalType": "address",
          "name": "previousOwner",
          "type": "address"
        },
        {
          "indexed": true,
          "internalType": "address",
          "name": "newOwner",
          "type": "address"
        }
      ],
      "name": "OwnershipTransferred",
      "type": "event"
    },
    {
      "anonymous": false,
      "inputs": [
        {
          "indexed": true,
          "internalType": "address",
          "name": "to",
          "type": "address"
        },
        {
          "indexed": true,
          "internalType": "uint16",
          "name": "srcChainId",
          "type": "uint16"
        },
        {
          "indexed": false,
          "internalType": "uint256",
          "name": "amount",
          "type": "uint256"
        },
        {
          "indexed": false,
          "internalType": "uint256",
          "name": "price",
          "type": "uint256"
        }
      ],
      "name": "TokensReceived",
      "type": "event"
    },
    {
      "anonymous": false,
      "inputs": [
        {
          "indexed": true,
          "internalType": "address",
          "name": "from",
          "type": "address"
        },
        {
          "indexed": true,
          "internalType": "uint16",
          "name": "dstChainId",
          "type": "uint16"
        },
        {
          "indexed": false,
          "internalType": "bytes",
          "name": "toAddress",
          "type": "bytes"
        },
        {
          "indexed": false,
          "internalType": "uint256",
          "name": "amount",
          "type": "uint256"
        },
        {
          "indexed": false,
          "internalType": "uint256",
          "name": "price",
          "type": "uint256"
        }
      ],
      "name": "TokensSent",
      "type": "event"
    },
    {
      "inputs": [
        {
          "internalType": "uint16",
          "name": "_dstChainId",
          "type": "uint16"
        },
        {
          "internalType": "bytes",
          "name": "_toAddress",
          "type": "bytes"
        },
        {
          "internalType": "uint256",
          "name": "_amount",
          "type": "uint256"
        },
        {
          "internalType": "bytes",
          "name": "_adapterParams",
          "type": "bytes"
        }
      ],
      "name": "estimateFees",
      "outputs": [
        {
          "internalType": "uint256",
          "name": "nativeFee",
          "type": "uint256"
        },
        {
          "internalType": "uint256",
          "name": "zroFee",
          "type": "uint256"
        }
      ],
      "stateMutability": "view",
      "type": "function"
    },
    {
      "inputs": [],
      "name": "lzEndpoint",
      "outputs": [
        {
          "internalType": "contract ILayerZeroEndpoint",
          "name": "",
          "type": "address"
        }
      ],
      "stateMutability": "view",
      "type": "function"
    },
    {
      "inputs": [
        {
          "internalType": "uint16",
          "name": "",
          "type": "uint16"
        }
      ],
      "name": "minDstGasLookup",
      "outputs": [
        {
          "internalType": "uint256",
          "name": "",
          "type": "uint256"
        }
      ],
      "stateMutability": "view",
      "type": "function"
    },
    {
      "inputs": [],
      "name": "owner",
      "outputs": [
        {
          "internalType": "address",
          "name": "",
          "type": "address"
        }
      ],
      "stateMutability": "view",
      "type": "function"
    },
    {
      "inputs": [],
      "name": "priceConsumer",
      "outputs": [
        {
          "internalType": "contract PriceConsumer",
          "name": "",
          "type": "address"
        }
      ],
      "stateMutability": "view",
      "type": "function"
    },
    {
      "inputs": [],
      "name": "renounceOwnership",
      "outputs": [],
      "stateMutability": "nonpayable",
      "type": "function"
    },
    {
      "inputs": [
        {
          "internalType": "address",
          "name": "_token",
          "type": "address"
        },
        {
          "internalType": "address",
          "name": "_to",
          "type": "address"
        },
        {
          "internalType": "uint256",
          "name": "_amount",
          "type": "uint256"
        }
      ],
      "name": "rescueTokens",
      "outputs": [],
      "stateMutability": "nonpayable",
      "type": "function"
    },
    {
      "inputs": [
        {
          "components": [
            {
              "internalType": "uint16",
              "name": "dstChainId",
              "type": "uint16"
            },
            {
              "internalType": "bytes",
              "name": "toAddress",
              "type": "bytes"
            },
            {
              "internalType": "uint256",
              "name": "amount",
              "type": "uint256"
            },
            {
              "internalType": "address payable",
              "name": "refundAddress",
              "type": "address"
            },
            {
              "internalType": "address",
              "name": "zroPaymentAddress",
              "type": "address"
            },
            {
              "internalType": "bytes",
              "name": "adapterParams",
              "type": "bytes"
            },
            {
              "internalType": "bytes",
              "name": "priceProof",
              "type": "bytes"
            }
          ],
          "internalType": "struct BridgeContract.BridgeParams",
          "name": "params",
          "type": "tuple"
        }
      ],
      "name": "sendTokens",
      "outputs": [],
      "stateMutability": "payable",
      "type": "function"
    },
    {
      "inputs": [
        {
          "internalType": "uint16",
          "name": "_dstChainId",
          "type": "uint16"
        },
        {
          "internalType": "uint256",
          "name": "_minGas",
          "type": "uint256"
        }
      ],
      "name": "setMinDstGas",
      "outputs": [],
      "stateMutability": "nonpayable",
      "type": "function"
    },
    {
      "inputs": [
        {
          "internalType": "uint16",
          "name": "_remoteChainId",
          "type": "uint16"
        },
        {
          "internalType": "bytes",
          "name": "_path",
          "type": "bytes"
        }
      ],
      "name": "setTrustedRemote",
      "outputs": [],
      "stateMutability": "nonpayable",
      "type": "function"
    },
    {
      "inputs": [
        {
          "internalType": "address",
          "name": "newOwner",
          "type": "address"
        }
      ],
      "name": "transferOwnership",
      "outputs": [],
      "stateMutability": "nonpayable",
      "type": "function"
    },
    {
      "inputs": [
        {
          "internalType": "uint16",
          "name": "",
          "type": "uint16"
        }
      ],
      "name": "trustedRemoteLookup",
      "outputs": [
        {
          "internalType": "bytes",
          "name": "",
          "type": "bytes"
        }
      ],
      "stateMutability": "view",
      "type": "function"
    }
  ],
  "bytecode": "0x60c0346100e657601f610f4c38819003918201601f19168301916001600160401b038311848410176100eb5780849260409485528339810103126100e657610052602061004b83610101565b9201610101565b60008054336001600160a01b0319821681178355604051946001600160a01b03949385939192918416907f8be0079c531659141344cd1fd0a4f28419497f9722a3daafe3b4186f6b6457e09080a360018055166080521660a052610e36908161011682396080518181816103ac01528181610722015281816107f10152610b64015260a0518181816106320152610a4f0152f35b600080fd5b634e487b7160e01b600052604160045260246000fd5b51906001600160a01b03821682036100e65756fe608080604052600436101561001357600080fd5b600090813560e01c90816315b86fab14610bea5750806339a52ef714610a7e578063461a758c14610a39578063709890d514610575578063715018a61461051b5780637533d7881461043a5780638da5cb5b14610413578063a02c0b98146103db578063b353aaa714610396578063cea9d26f146102df578063eb8d72b7146101725763f2fde38b146100a557600080fd5b3461016f57602036600319011261016f576100be610d0b565b6100c6610d21565b6001600160a01b0390811690811561011b57600054826bffffffffffffffffffffffff60a01b821617600055167f8be0079c531659141344cd1fd0a4f28419497f9722a3daafe3b4186f6b6457e0600080a380f35b60405162461bcd60e51b815260206004820152602660248201527f4f776e61626c653a206e6577206f776e657220697320746865207a65726f206160448201526564647265737360d01b6064820152608490fd5b80fd5b503461016f57604036600319011261016f5761018c610c1a565b9067ffffffffffffffff6024358181116102db576101b161ffff913690600401610c2b565b9190946101bc610d21565b16835260209360028552604084209282116102c7576101db8354610c59565b601f8111610284575b508394601f8311600114610221575093839482939492610216575b50508160011b916000199060031b1c191617905580f35b0135905038806101ff565b90601f198316958486528286209286905b88821061026c57505083600195969710610252575b505050811b01905580f35b0135600019600384901b60f8161c19169055388080610247565b80600184968294958701358155019501920190610232565b838552858520601f840160051c8101918785106102bd575b601f0160051c01905b8181106102b257506101e4565b8581556001016102a5565b909150819061029c565b634e487b7160e01b84526041600452602484fd5b8280fd5b503461016f57606036600319011261016f576102f9610d0b565b6001600160a01b0390602435828116919082900361039157604460209261031e610d21565b85604051958694859363a9059cbb60e01b8552600485015284356024850152165af180156103865761034e575080f35b6020813d821161037e575b8161036660209383610c93565b8101031261037a57518015150361016f5780f35b5080fd5b3d9150610359565b6040513d84823e3d90fd5b600080fd5b503461016f578060031936011261016f576040517f00000000000000000000000000000000000000000000000000000000000000006001600160a01b03168152602090f35b503461016f57604036600319011261016f5761ffff6103f8610c1a565b610400610d21565b1681526003602052602435604082205580f35b503461016f578060031936011261016f57546040516001600160a01b039091168152602090f35b503461016f5760208060031936011261037a5761ffff610458610c1a565b16825260028152604082206040518381949083549061047682610c59565b948585526001928784821691826000146104f75750506001146104bb575b5050506104a392500383610c93565b6104b7604051928284938452830190610ccb565b0390f35b869350819291528282205b8583106104df5750506104a39350820101388080610494565b805483890185015287945086939092019181016104c6565b9350945050506104a394915060ff191682840152151560051b820101388080610494565b503461016f578060031936011261016f57610534610d21565b600080546001600160a01b0319811682556001600160a01b03167f8be0079c531659141344cd1fd0a4f28419497f9722a3daafe3b4186f6b6457e08280a380f35b50602036600319011261016f5767ffffffffffffffff6004351161016f5760e06004353603600319011261016f576002600154146109f457600260015560446004350135156109be5761ffff6105cf600435600401610d79565b16815260026020526105e46040822054610c59565b156109795761062690606061060360c460043501600435600401610d88565b6040519485928392635236a3e760e11b8452604060048501526044840191610dbb565b602482018590520381847f00000000000000000000000000000000000000000000000000000000000000006001600160a01b03165af191821561096c578192610939575b506106ae610682602460043501600435600401610d88565b6106a085604094939451948593604460043501359160208601610ddc565b03601f198101835282610c93565b6106bc600435600401610d79565b9061ffff6106ce600435600401610d79565b16835260026020526040832060043560640135916001600160a01b038316830361093557600435608401356001600160a01b03811681036109315761071d60a460043501600435600401610d88565b9390927f00000000000000000000000000000000000000000000000000000000000000006001600160a01b03163b1561092d57918795939161ffff97959360405198899762c5803160e81b895216600488015260c06024880152879180549061078582610c59565b918260c48b0152896001821691826000146109055750506001146108c2575b5050916107c4879694926107ec96946003198983030160448a0152610ccb565b6001600160a01b039485166064880152931660848601528483036003190160a4860152610dbb565b0381347f00000000000000000000000000000000000000000000000000000000000000006001600160a01b03165af1801561038657610896575b509061088c7ffddccbc9551702941ca319ef875152663df18c2a77c25b17b88f42ee51ae98bf61ffff61085d600435600401610d79565b610871602460043501600435600401610d88565b94909560405193849316963396604460043501359185610ddc565b0390a36001805580f35b67ffffffffffffffff81116108ae5760405238610826565b634e487b7160e01b82526041600452602482fd5b89526020892091925088915b8183106108e8575050860160e401906107c46107ec6107a4565b805460e4848d0101528b99508a98506020909201916001016108ce565b60ff191660e48083019190915293151560051b0190920193506107c491506107ec90506107a4565b8780fd5b8580fd5b8480fd5b9091506060813d8211610964575b8161095460609383610c93565b8101031261037a5751903861066a565b3d9150610947565b50604051903d90823e3d90fd5b60405162461bcd60e51b815260206004820152601d60248201527f44657374696e6174696f6e20636861696e206e6f7420747275737465640000006044820152606490fd5b60405162461bcd60e51b815260206004820152600e60248201526d125b9d985b1a5908185b5bdd5b9d60921b6044820152606490fd5b60405162461bcd60e51b815260206004820152601f60248201527f5265656e7472616e637947756172643a207265656e7472616e742063616c6c006044820152606490fd5b503461016f578060031936011261016f576040517f00000000000000000000000000000000000000000000000000000000000000006001600160a01b03168152602090f35b503461016f5760031960803682011261037a57610a99610c1a565b9067ffffffffffffffff60243581811161093557610abb903690600401610c2b565b60649491943592831161093157604093610b1a610b6092610ae361ffff963690600401610c2b565b929091610aff89519a8b92606060208501526080840191610dbb565b6044358a8301528b606083015203601f1981018a5289610c93565b610b4b8751988997889763040a7bb160e41b895216600488015230602488015260a0604488015260a4870190610ccb565b92896064870152858403016084860152610dbb565b03817f00000000000000000000000000000000000000000000000000000000000000006001600160a01b03165afa80156103865782918391610bad575b6040838382519182526020820152f35b9150506040813d604011610be2575b81610bc960409383610c93565b8101031261037a57604091506020815191015138610b9d565b3d9150610bbc565b90503461037a57602036600319011261037a57604060209261ffff610c0d610c1a565b1681526003845220548152f35b6004359061ffff8216820361039157565b9181601f840112156103915782359167ffffffffffffffff8311610391576020838186019501011161039157565b90600182811c92168015610c89575b6020831014610c7357565b634e487b7160e01b600052602260045260246000fd5b91607f1691610c68565b90601f8019910116810190811067ffffffffffffffff821117610cb557604052565b634e487b7160e01b600052604160045260246000fd5b919082519283825260005b848110610cf7575050826000602080949584010152601f8019910116010190565b602081830181015184830182015201610cd6565b600435906001600160a01b038216820361039157565b6000546001600160a01b03163303610d3557565b606460405162461bcd60e51b815260206004820152602060248201527f4f776e61626c653a2063616c6c6572206973206e6f7420746865206f776e65726044820152fd5b3561ffff811681036103915790565b903590601e1981360301821215610391570180359067ffffffffffffffff82116103915760200191813603831361039157565b908060209392818452848401376000828201840152601f01601f1916010190565b90610df69060409396959496606084526060840191610dbb565b946020820152015256fea26469706673582212206745ca71bb46d43c8401dd7aeb95918b8ed41331c6dbdf1dae930c77ebe21e5964736f6c63430008130033",
  "linkReferences": {},
  "deployedLinkReferences": {}
}