{
  "_format": "hh-sol-artifact-1",
  "contractName": "Supra",
  "sourceName": "src/contracts/Supra.sol",
  "abi": [
    {
      "inputs": [
        {
          "internalType": "address",
          "name": "oracle_",
          "type": "address"
        }
      ],
      "stateMutability": "nonpayable",
      "type": "constructor"
    },
    {
      "anonymous": false,
      "inputs": [
        {
          "indexed": false,
          "internalType": "uint256",
          "name": "pairId",
          "type": "uint256"
        },
        {
          "indexed": false,
          "internalType": "uint256",
          "name": "price",
          "type": "uint256"
        }
      ],
      "name": "PriceThresholdMet",
      "type": "event"
    },
    {
      "inputs": [
        {
          "internalType": "bytes",
          "name": "_bytesProof",
          "type": "bytes"
        }
      ],
      "name": "deliverPriceData",
      "outputs": [],
      "stateMutability": "nonpayable",
      "type": "function"
    },
    {
      "inputs": [
        {
          "internalType": "uint256",
          "name": "pairId",
          "type": "uint256"
        }
      ],
      "name": "getLatestPrice",
      "outputs": [
        {
          "internalType": "uint256",
          "name": "price",
          "type": "uint256"
        },
        {
          "internalType": "uint256",
          "name": "decimals",
          "type": "uint256"
        }
      ],
      "stateMutability": "view",
      "type": "function"
    },
    {
      "inputs": [
        {
          "internalType": "uint256",
          "name": "",
          "type": "uint256"
        }
      ],
      "name": "latestDecimals",
      "outputs": [
        {
          "internalType": "uint256",
          "name": "",
          "type": "uint256"
        }
      ],
      "stateMutability": "view",
      "type": "function"
    },
    {
      "inputs": [
        {
          "internalType": "uint256",
          "name": "",
          "type": "uint256"
        }
      ],
      "name": "latestPrices",
      "outputs": [
        {
          "internalType": "uint256",
          "name": "",
          "type": "uint256"
        }
      ],
      "stateMutability": "view",
      "type": "function"
    },
    {
      "inputs": [
        {
          "internalType": "address",
          "name": "oracle_",
          "type": "address"
        }
      ],
      "name": "updatePullAddress",
      "outputs": [],
      "stateMutability": "nonpayable",
      "type": "function"
    }
  ],
  "bytecode": "0x60803461007457601f6104f938819003918201601f19168301916001600160401b038311848410176100795780849260209460405283398101031261007457516001600160a01b0381169081900361007457600080546001600160a01b03191691909117905560405161046990816100908239f35b600080fd5b634e487b7160e01b600052604160045260246000fdfe6080604081815260048036101561001557600080fd5b600092833560e01c9081632d4aa76f1461011c57508063a73a99ac146100f5578063b94fe917146100c0578063c9f8d053146100845763dd1fd8561461005a57600080fd5b346100805760203660031901126100805760209282913581526002845220549051908152f35b8280fd5b8382346100bc5760203660031901126100bc57356001600160a01b038116908190036100bc5781546001600160a01b03191617815580f35b5080fd5b508290346100bc5760203660031901126100bc5735815260016020528180822054916002602052205482519182526020820152f35b50346100805760203660031901126100805760209282913581526001845220549051908152f35b91849150346100bc576020806003193601126100805781359467ffffffffffffffff808711610361573660238801121561036157868401358181116103535760249736898383010111610339578588886044828683978f83988d60018060a01b0388541699632ce81dbd60e21b8752860152828286015201848401378181018301849052601f01601f191681010301925af195861561035757859661029c575b5050835b8551805182101561029857816101d591610409565b516101e38285890151610409565b51906101f283858a0151610409565b51818852600186528285892055600286528085892055604d811161028657600a0a6103e89080820291820403610286579084918311610252575b5050506000198114610240576001016101c0565b634e487b7160e01b8552601184528685fd5b7f52f568891f17318209fd465531500190924890a6a3e48086bd653020498d6b2392825191825286820152a187828161022c565b634e487b7160e01b8852601187528988fd5b8580f35b909195503d8086833e6102af8183610365565b810190838183031261035357805190838211610339570191606083830312610353578651926060840184811083821117610341578852805182811161033d57836102fa91830161039d565b84528481015182811161033d578361031391830161039d565b85850152878101519182116103395761032d92910161039d565b858201529386806101bc565b8680fd5b8780fd5b634e487b7160e01b8852604187528988fd5b8580fd5b82513d87823e3d90fd5b8480fd5b90601f8019910116810190811067ffffffffffffffff82111761038757604052565b634e487b7160e01b600052604160045260246000fd5b9080601f830112156104045781519067ffffffffffffffff8211610387578160051b604051936020936103d285840187610365565b85528380860192820101928311610404578301905b8282106103f5575050505090565b815181529083019083016103e7565b600080fd5b805182101561041d5760209160051b010190565b634e487b7160e01b600052603260045260246000fdfea2646970667358221220c3e9cea53515a072214490aa011e4d00dda04c3f536fd62905c268416aa69eee64736f6c63430008130033",
  "linkReferences": {},
  "deployedLinkReferences": {}
}